:020000040800F2
:100000002806002005500008354E0008374E00082D
:10001000394E00083B4E00083D4E0008000000002D
:100020000000000000000000000000003F4E00083B
:10003000414E000800000000434E0008454E0008F5
:100040002150000825500008295000082D500008B4
:100050003150000835500008BF4E000839500008E4
:100060003D50000841500008455000084950000824
:100070004D500008515000085550000859500008D4
:100080005D50000861500008B94E00086550000836
:10009000695000086D500008715000087550000844
:1000A000795000087D5000088150000885500008F4
:1000B000895000088D500008000000009150000891
:1000C0009550000800000000000000009950000852
:1000D000000000009D500008A1500008A550000835
:1000E000A9500008AD50000800000000000000000A
:1000F0000000000000000000000000000000000000
:1001000000000000000000000000000000000000EF
:100110000000000000000000B1500008B5500008C9
:1001200000000000000000000000000000000000CF
:1001300000000000000000000000000000000000BF
:10014000B9500008BD50000800000000C94E00086A
:10015000C54E0008C1500008C5500008C95000082D
:10016000CD500008D1500008000000000000000041
:10017000000000000000000000000000000000007F
:1001800000000000D55000082DE9F8432DED088B44
:1001900094B000260FA8142101F0A4F94FF4C879F7
:1001A0009FED748BC84600F03DFA01F0B5F90120CF
:1001B00005900690079602200C904FF480300D9029
:1001C0004FF4E0100E9005A801F0E2F908B101F03B
:1001D0003FF90F20009002960220019004964FF400
:1001E00080600390022100A801F054FB08B101F0E7
:1001F0002FF901F018FCDFF8A81CB0FBF1F001F0BA
:100200007CFCDFF8A04C0020207101F097FC01205D
:1002100001F094FC022001F091FC032001F08EFC1F
:100220000121304601F0C6FC304601F000FD0128F6
:100230001AD10DE000F054FE462001F098F900F0CC
:1002400052FE00F08DFE462001F091F900F08BFE89
:1002500001F056F80128EDD000F045FE00F083FED5
:100260000120A07100F013FC00F0EAF900F078FB27
:100270009FEDC39B9FEDC4BADFEDC4BADFF8287CC5
:100280000FAD0CE000F072FE00F06DFEB0EE6B0AF8
:1002900000F0F2FB502001F06AF986F00106607967
:1002A00038B1022800F09E8068D3032800F03E8118
:1002B00062E100F08AF900F01CFE00F05AFE00F046
:1002C00052FE00F010FE00F0A7F918B301F0C0F8DC
:1002D00020E000F005FE00F00CFE00F097F900EEC3
:1002E000100A00F0C9FB53EC1A2B0020DFF8BC1BEE
:1002F00001F0C6FC00F074F951EC1A0B0022DFF893
:10030000B03B01F031FD05D800F08CF900F0EBFDB9
:1003100000F0E3FD00F0F4FF012804BFE0780128BD
:10032000D7D000F0EDFF012804BFE0780028B6D157
:1003300000F0D9FD00F0DAFD00F068F900EE100AD7
:1003400000F09AFB53EC1A2B0020DFF8681B01F039
:1003500097FC00F045F951EC1A0B0022002301F044
:100360001BFDDED89FEDA7AB00F0C3FD00F0B5FD8F
:10037000D7E700BF000000000088834000F025F9A7
:100380000120E07000F04EF9B0EE6B0A00F074FB53
:100390000020207101F0FAFB00F01FF900F0A9FD28
:1003A00000F0DEFD00F019F900F0DDFD00F098FD31
:1003B00000F013F900F097FD00F0D8FD00F00DF902
:1003C00000F0D7FD012020704021384602F0F0F8FF
:1003D00008B101F03DF84FEA5808B8F1010F00D11B
:1003E000C8465CE700F023F900F0C3FD00F0BBFD58
:1003F00000F079FD00F010F908B101F029F80020B3
:10040000207101F0C3FB00F06EFD50200F902820FA
:1004100068600020A860A020E860782028610020A3
:100420006065A065E06520666066C4ED1ABA38684C
:10043000D0F8901341F40031C0F89013C4ED1ABA0B
:100440002CE094ED1A0ADFEDC70A00F0A1F805DBF5
:1004500055F82010491C00F0ABF8F9D300F09EF8D5
:1004600053EC192B02F0FEFD02F0CEFE02F014FF59
:1004700041EC100B02F070FF51EC100B02F0C4FEC7
:1004800000F0B4F8A06E02F007FFDFF85C2DDFF893
:10049000483D01F0F5FB02F0B7FEA06694ED1A0AA4
:1004A000B4EE4B0AF1EE10FA02DB20790028C8D036
:1004B00000F016FD00F01DFD84ED1ABA94ED1A0A45
:1004C000DFEDA90A00F064F858D52079002855D14D
:1004D00094ED1A0ADFEDA50A00F05AF805DB55F88D
:1004E0002010491E00F064F8F9D300F057F853ECDF
:1004F000192B02F0B7FD02F087FE02F0CDFE41ECB1
:10050000100B02F029FF51EC100B02F07DFE00F001
:100510006DF8A06E02F0C0FEDFF8CC2CDFF8CC3C0A
:1005200001F0AEFB02F070FEA066C7E700F04DF8E8
:1005300000F07DF800F0D7FC26B100F017FD00F0C8
:1005400012FD03E000F015FD00F00AFD00F064F874
:1005500008B100F07DFF002020719FED850A00F0BA
:100560008BFA142001F003F8002E3FF48BAE00F05C
:1005700000FD00F0F5FC89E600F06AFF8FE6000060
:100580009A9999999999F13F0080D14300401C4470
:10059000B4EE600AF1EE10FA7047000094ED1A0A0A
:1005A000DFED740A80EE200A10EE100A02F074BE2D
:1005B00045F8201040F6E4420903B1FBF2F104EBE8
:1005C0008002401C0528516570473868D0F89013A8
:1005D00021F40031C0F890137047404600F0C7BFC7
:1005E00041EC1A0B0A2000F0C2BF000000EE100A16
:1005F000DFED600A80EE200ABCEEC00A10EE100AA1
:1006000000F0B5BF000000000000000000202071D5
:1006100051EC1A0B02F0F8BD002020704021384642
:1006200001F0D9BFB0EE48AAF0EE68AA70470120E9
:10063000E070B0EE48AAF0EE68AA002001F0B0BA6F
:1006400070B588B0002040F6E443DFF8584800F069
:100650004DFEFCDBDFF8306DDFF8305D306840F0D8
:1006600001003060102068630020A8638020E863E8
:100670004FF4007028644FF4006068642020A86480
:100680004FF40050E864DFF8080D286305F13000EE
:1006900002F06AFE08B100F0DBFEB06840F00050E6
:1006A000B060DFF8F00CA86605F1680002F0C9FE42
:1006B00008B100F0CDFE05F1680002F0AFFE08B110
:1006C00000F0C6FE0220069000220020059005A939
:1006D00005F1680002F009FF08B100F0B9FE002141
:1006E00005F1680002F0D0FE08B100F0B1FE636DC4
:1006F0000022002105F1680002F0B4FE08B100F00C
:10070000A7FE306840F48020306000A901200090EE
:10071000032001900020029000F015F9DFF8000D91
:100720002860284602F04FFF08B100F091FE4020FB
:1007300068600020A860E86028616861E861A861DD
:1007400028626862284602F0F9FE08B100F080FED7
:10075000284602F04DFF08B100F07AFE00F00CF8D8
:1007600008B070BD6746174401401C44014017445F
:10077000000000000000C84230B5B5B04FF4805012
:10078000309030A902203190032033900020329025
:100790000D20349000F0D7F8DFF8880CDFF8084718
:1007A000816941F480518161016841F0005101602B
:1007B000DFF8740C2060204601F006FBDFF8CC5B0C
:1007C00005F13000C4F8D0006C650C21204601F022
:1007D0004FFB08B100F03CFE4FF0FF31204601F026
:1007E00068FB08B100F034FE00F026F910224FF447
:1007F00080001E90022104201F90002000F015F9B7
:1008000008B100F025FE0020079007AA4FF4F81069
:1008100008900221DFF8140C0990A86E08300A90A5
:1008200005200B90002000F019F94FF400101990EA
:1008300000F008F908B100F00BFE00F088F840F66F
:1008400066600090012200F087F808B100F000FE19
:1008500000F07DF841F6CD400090022200F07CF8D7
:1008600008B100F0F5FD00F072F842F63330009068
:10087000042200F071F808B100F0EAFD00F067F81A
:1008800043F69A100090082200F066F808B100F0D4
:10089000DFFD4FF4904000F0DBF8022100F0C0F8DB
:1008A00008B100F0D5FD0120249024AA0020259055
:1008B000269002212020289000202790204601F039
:1008C000BBFC08B100F0C4FD0220299029A90C202E
:1008D0002A9000202B904FF480602C9000202D90C7
:1008E00040F271202E902F90204601F076FC08B146
:1008F00000F0AEFD1021204601F05AFE08B100F0D4
:10090000A7FD0121204601F0F7FE08B100F0A0FD8F
:100910004FF40021204601F08DFE08B100F098FD53
:1009200000220021432001F0BCF8432001F0DBF855
:100930004FF400306060204601F0F7FE08B100F08F
:1009400087FD35B030BDDFF8E80A02F069BE00204F
:100950000190029000AB70470221204601F080BD5B
:1009600010B5DFF8240AAAB0016841F480210160C3
:100970004FF48040249024A9022025900320279042
:10098000002026900D202890FFF7DDFFDFF81845A6
:1009900000F052F8402208201E90032100201F90F2
:1009A00000F043F808B100F053FD002007900890D4
:1009B00009900A900B9000F051F807AA4FF48000BC
:1009C0001990032100F03EF808B100F041FD4FF40A
:1009D000106000F03DF8032100F022F808B100F0AB
:1009E00037FDFFF7B4FFDFF84C0A008800900122C2
:1009F0000321204601F034FD08B100F029FD40211B
:100A0000204601F0D5FD08B100F022FD4FF4801121
:100A1000204601F0F3FD08B100F01AFD2AB010BD28
:100A200008200690204601F05EBA20902190229086
:100A30002390204601F09FBD00201C901CAB042099
:100A40001D90704700201A901B90204601F05ABC60
:100A5000039003AA00200490059070470C900D901D
:100A60000E900F901090119012901390149015907A
:100A70001690179018907047DFF82C140968BDEE97
:100A8000C00A10EE100A80B2C1F8A80370472DE921
:100A9000F04FDFF8A409B3B0006880B203900024DF
:100AA000DFF8E408C16941F48051C16140F6C41522
:100AB000416841F0005141602E46416841F001011A
:100AC0004160A146016841F400310160016841F4D0
:100AD00080210160016841F4002101604FF47060E1
:100AE0002E902EA902202F900320319030940D20BB
:100AF00032904FF0904002F093FD0121002001F070
:100B000059F8DFF8A483DFF82009C8F800000C21A9
:100B1000404601F0ADF908B100F09AFC4FF0FF310A
:100B2000404601F0C6F908B100F092FC269404207A
:100B3000279026AB0820289029942A942B942C9453
:100B40002D9401220021404601F015FD08B100F06E
:100B50007FFC26AB04220121404601F00CFD08B1C8
:100B600000F076FC11941294139414941594169436
:100B70001794189419944FF000601A901B941C94C9
:100B80004FF000501D901E941F9420944FF48070DD
:100B90002190229423942494259411AA0021404664
:100BA00001F0B0FB08B100F053FC11AA012140464E
:100BB00001F0A8FB08B100F04BFC0B940A940C94D4
:100BC00040F2131000F07CF940F23340059004AA83
:100BD0000021404601F015FC08B100F039FC0B94EF
:100BE0000A940C944B2000F06BF940F2C940059038
:100BF00004AA0121404601F004FC08B100F028FCE1
:100C00004FF490400D900DAA0A200E900F940820EA
:100C100010900021404601F066F908B100F018FC80
:100C200001940295009500AB012200F052F908B141
:100C300000F00EFC019440F6B8300290009000AB3A
:100C4000022200F046F908B100F002FC019441F2E2
:100C50007C500290009000AB082200F03AF908B1F5
:100C600000F0F6FB0DAA0121404601F03CF908B165
:100C700000F0EEFB01944FF47A700290009000AB0C
:100C80000222012100F026F908B100F0E1FB002268
:100C90001146442000F005FF442000F024FF01210C
:100CA00000F014F908B100F0D3FB022100F00EF9B6
:100CB00008B100F0CDFB042100F008F908B100F004
:100CC000C7FB082100F002F908B100F0C1FB00F0F9
:100CD00059FA0021404601F046F908B100F0B8FB8E
:100CE00000F04AF900F0F9F800276E4D00F0D1F855
:100CF00025D900F0E1F808B100F0AAFBE86E0399ED
:100D000048436989B0FBF1F0E86640F6E441E86EDB
:100D1000484340F6FF71B0FBF1F040F2F111484357
:100D200064217F1C642FB0FBF1F4DFD300F01EF9C7
:100D300000F0D3F800F01DF900F0CFF8F6E700F06E
:100D40000FF90220A8700120687000F0C6F800F0CA
:100D5000B3F808B100F07CFBDFF8E00648440B284C
:100D600044F20C6A42F2117B32D300F0C5F8D94547
:100D700004D20A36564507D3564605E00A3EB6F574
:100D8000FA7F98BF4FF4FA7600F0DFF808B100F070
:100D90005FFB00F0EAF900F08FF808B100F058FBB3
:100DA0005F4502D200F075F8D6D900F0DCF800F00B
:100DB0009DF800F092F800F09CF800F08EF8F6E74D
:100DC00000F08EF800F089F800F08DF800F085F85A
:100DD00028890028F4D0002028810120A87068709C
:100DE000FFF700FC002700F07BF800F0BCF8A9F248
:100DF000CB700B2833D300F07FF8B9F5FA6F04D825
:100E00000A36564507D3564605E00A3EB6F5FA7F40
:100E100098BF4FF4FA7600F098F808B100F018FB8C
:100E200000F0A3F900F048F808B100F011FB5F45AD
:100E300002D200F02EF8DAD900F055F800F056F89A
:100E400000F04BF800F055F800F047F8F6E700F036
:100E500087F800F042F800F086F800F03EF82889A4
:100E60000028F4D000F042F800F080F800F078F8A4
:100E700000F036F8962000F07AFB00F03AF800F027
:100E800078F800F070F800F02EF8962000F06FFB74
:100E9000E8E7DFF8AC050019B0F57A7F704700008D
:100EA000A086010000000020BC0000200000F03FF0
:100EB000008883400000F0BF05F10C0002F034BF51
:100EC000099004940794069408947047404601F0F2
:100ED0006FBB0021404601F0C3BA642000F047BB5D
:100EE000032000F053BE032000F05ABE002000F0A3
:100EF0004DBE002000F054BE6889E96E039A51434C
:100F0000B1FBF0F1E966296F039A5143B1FBF0F0B0
:100F1000286740F6E442E96E286F514340F6FF72BD
:100F2000B1FBF2F140F2F11251436422B1FBF2F451
:100F300040F6E441484340F6FF71B0FBF1F040F267
:100F4000F7114843B0FBF2F9704700200190029678
:100F50007F1C009600AB01220021404601F080BAC0
:100F6000022000F013BE022000F01ABE012000F0A3
:100F70000DBE012000F014BE10B59EB000200590FB
:100F8000DFF80404816921F4F87141F4887181610A
:100F9000016841F080510160022000F0E9F808206A
:100FA00000F0E6F800F0E1F8DFF898444FF0A040D8
:100FB000E06000A900200190009000F0D1F808B195
:100FC00000F046FA4FF4403020610020A062A0619A
:100FD00020632064042020620020A06300F0B5F8A4
:100FE00060640020606100F0B6F808B100F030FAEB
:100FF000002104F10C0002F03EFE08B100F028FAD6
:10100000002104F10C0002F071FE059017A91220D6
:10101000179000201C901B9001201890052019901B
:1010200000201A9004F10C0002F01DFF08B100F03E
:101030000FFA00F09AF804F10C0002F088FC08B1F5
:1010400000F006FA4FF0FF3104F10C0002F0B6FC9C
:1010500008B100F0FDF904F10C0002F016FD60810A
:1010600004F10C0002F095FC08B100F0F1F900F079
:101070007CF80020019000A905200090002000F0DD
:101080006FF808B100F0E4F900202061A062A061CF
:1010900020632064082020620120A063002000F06B
:1010A00054F8002060646061012000F054F808B139
:1010B00000F0CEF9002013900BA9242015904020B9
:1010C000169002200B900120129002201190002017
:1010D00010900F9001200C9003200D9000200E9096
:1010E000149004F10C0002F073FF08B100F0B0F9A5
:1010F00004200B900BA902200C9004200D9004F109
:101100000C0002F065FF08B100F0A2F900220021F6
:10111000122000F0C6FC122000F0E5FC4FF48040E5
:10112000049003AA4FF4003003900221C64801F056
:101130009DF808B100F08CF904F10C0002F0F4FD08
:1011400008B100F085F91EB010BDE06360620120B7
:10115000E06260637047E06104F10C0002F032BBB2
:10116000029004F10C0003F0F3B8012000F0FFB985
:10117000069006A903200790002008904FF09040A9
:1011800002F04EBA10B588B000F032F800F014F951
:101190000820029000AB00F021F808B100F058F9E7
:1011A00000F004F900F04CF808B100F051F900F03B
:1011B000F7F8082200F045F808B100F049F94FF4BB
:1011C000C021204601F01AFA08B100F041F99D490A
:1011D0000020487008B010BD9999B9BF9A4C0122FF
:1011E0000021204601F0C7B99A9999999999B93F78
:1011F00010B588B0002000900420039000200490D7
:10120000059006900790FFF7A3FBFFF7E7FF08B1F3
:1012100000F01EF900AB0222FFF7E2FF08B100F078
:1012200017F900AB00F00CF808B100F011F900ABB1
:10123000082200F006F808B100F00AF908B010BD65
:1012400004220121204601F096B938B504462068F1
:10125000006840060FD57C497A4D09680220C1F824
:1012600008010121204602F0E7FDE8660221204640
:1012700002F0E2FD28672046BDE8324002F0A0BD42
:1012800038B5FFF776FEFFF76EFE6E4C0120208129
:10129000A07950BB012020716C4D6079401C6071B9
:1012A00000F02EF8012808D16D1EF9D100206071E0
:1012B000E178481E8041C00FE0704FF48C7060658B
:1012C00040F6E443F020A065C820E0654FF4B47018
:1012D00020664FF4A0706066002000F007F8FCD391
:1012E00060790428A4BF0120607131BD04EB800146
:1012F000401C4A6D1203B2FBF3F205284A657047A1
:10130000002000F094BC01B1704730B54D4C89B05D
:101310006078012835D1A078012802D0022803D0B6
:101320002DE0FFF72FFF2CE0FFF762FF00F044F8FD
:101330004FF48050029000AB434D0422012100F095
:101340002CF808B100F084F800F030F8022200F028
:1013500023F808B100F07CF800F022F8012200F038
:101360001BF808B100F074F84FF4C021284601F0D2
:1013700045F908B100F06CF80020607001E000F061
:1013800067F809B030BD0000141002409801002039
:1013900058000240007400400021284601F0EBB8DC
:1013A0000420019000AB00200290704700200190C3
:1013B00000AB0420029070470020009004200390AE
:1013C000002004900590069007900420019070473B
:1013D00038B51C4C0FF28C0294ED1A0AE579D4ED65
:1013E0001A0ABCEEC00A10EE100AB8EE400A70EEFF
:1013F000C00AFEEEEE0A10EE901A02EB011131F86F
:10140000151021B1401C00EE100AB8EE400AFFF79B
:1014100033FB681CC0B20828A8BF0020E07131BDB2
:1014200028000140181002400074014054000020C0
:1014300000040048B8000020BAF7FF1FF5D8FFFFEE
:101440006CEEFFFF00000020BC00002040420F00B7
:1014500080B5FFF74BFDFFF789FDFFF781FDFFF733
:101460003FFDF6E700000000000000000000000063
:10147000000000000000000000000000000000006C
:10148000000001000000000000000100000000005A
:101490000000010000000000010000000000010049
:1014A0000000010000000100000001000000010038
:1014B0000000010000000100000001000100000028
:1014C0000100010000000100010001000000010016
:1014D0000100010000000100010001000100010005
:1014E00001000100002203F021B810B450F8041BE1
:1014F00081B102681218001D50F8043BDC0744BF9C
:10150000A9F10104E31852F8044B43F8044B091FF6
:10151000F9D1EBE710BC704780B51B48016841F07A
:1015200010010160032000F0AFFA0F2000F005F871
:1015300000F002F8002002BD704710B5044600F02C
:1015400072FA4FF47A71B0FBF1F000F0D6FA002293
:1015500021464FF0FF3000F0A4FA002010BD0B48E8
:101560000168491C0160704708480068704711B560
:1015700081B0FFF7F9FF0446FFF7F6FF0199001B62
:101580008842F9D313BD0000002002402002002051
:101590002DE9F843044641F289382078DFF8BC523F
:1015A000C00744D5686800F00C00042807D06868BC
:1015B00000F00C0008280AD16868C00307D500F0C5
:1015C00025F9002833D0606888BB012018E100208D
:1015D000A870FFF7C9FF074600F018F928B1FFF718
:1015E000C3FFC01B4045F7D307E16068A870E86AF5
:1015F000A168000941EA0010E862606858B1FFF78D
:10160000B3FF074600F002F988B9FFF7ADFFC01B32
:101610004045F7D3F1E0FFF7A7FF074600F0F6F8E3
:1016200028B1FFF7A1FFC01B4045F7D3E5E02078C4
:101630008B4E800718D5686810F00C0F07D06868CB
:1016400000F00C00082824D16868C00321D400F001
:10165000E1F81CBF20690128B7D12868616920F032
:10166000F80040EAC1002860207800073CD5A16955
:101670007C4859B301210160FFF776FF0746686A8D
:10168000C0F3400080BBFFF76FFFC01B6528F6D397
:10169000B3E0206968B101203060FFF765FF0746BD
:1016A00000F0B8F8D9D1FFF75FFFC01B6528F7D36A
:1016B000A3E03060FFF758FF074600F0ABF8D3D047
:1016C000FFF752FFC01B6528F7D396E00160FFF7D4
:1016D0004BFF0746686AC0F3400028B1FFF744FF9C
:1016E000C01B6528F6D388E0207840074BD5E86911
:1016F000DFF8649140F08050E861D9F8000040F4D0
:101700008070C9F80000FFF72FFF0746D9F80000E6
:10171000C00505D4FFF728FFC01B6528F6D36CE091
:10172000286A20F005002862FFF71EFF0746286A96
:10173000C0F3400028B1FFF717FFC01B4045F6D3A8
:101740005BE0286AE16820F0050008432862E06851
:1017500060B1FFF709FF0746286AC0F3400090B95F
:10176000FFF702FFC01B4045F6D346E0FFF7FCFE43
:101770000746286AC0F3400028B1FFF7F5FEC01BFA
:101780004045F6D339E0E069002838D0696801F0B7
:101790000C0108293FF419AF022822D100F032F8D9
:1017A00007462868C0F3406028B1FFF7DDFEC01B84
:1017B0006528F6D321E06868616A20F47410084354
:1017C000216A08436860012000F01DF80746286878
:1017D000C0F3406098B9FFF7C7FEC01B6528F6D379
:1017E0000BE000F00FF807462868C0F3406030B106
:1017F000FFF7BAFEC01B6528F6D3032000E00020E7
:10180000BDE8F28300203066FFF7AEBE2868C0F363
:10181000404070472868C0F34000002870471248D5
:10182000016801F00C02082A14D10FF24802C1F33A
:101830008343C9039A5C806A09D50FF248030B49B8
:1018400000F00F00C05CB1FBF0F050437047084857
:101850005043704705487047007000400010024038
:1018600000004242800442420410024000127A000A
:1018700000093D0002030405060708090A0B0C0DC8
:101880000E0F10100102030405060708090A0B0CCD
:101890000D0E0F102DE9F8436B4D6A4E0446286873
:1018A0000F4600F00700B84241F289383DD200F0FF
:1018B000A4F87CD100F0ABF87BD56068012803D197
:1018C0003168C1F3404104E00228316803D1C1F31B
:1018D000406121B96BE0C1F34001002967D000F0FD
:1018E00081F807466068012809D100F082F80428D1
:1018F0005FD0FFF739FEC01B4045F6D352E0022807
:1019000009D100F076F8082853D0FFF72DFEC01B50
:101910004045F6D346E0706810F00C0F49D0FFF751
:1019200023FEC01B4045F6D33CE000F070F83BD5E9
:101930006068012803D13168C1F3404104E0022806
:10194000316803D1C1F3406121B930E0C1F34001F6
:1019500000292CD000F046F88146606801280AD1A1
:1019600000F047F804281FD0FFF7FEFDA0EB0900A8
:101970004045F5D316E002280AD100F03AF80828CD
:1019800012D0FFF7F1FDA0EB09004045F5D309E0C7
:10199000706810F00C0F07D0FFF7E6FDA0EB090010
:1019A0004045F5D303201BE000F027F801D00120CB
:1019B00016E02078400705D57068E16820F4E06003
:1019C000084370602078000706D57068216920F40C
:1019D000605040EAC10070600F20FFF7AEFD0020AC
:1019E000BDE8F2837168890840EA81007060FFF702
:1019F000BBBD706800F00C0070472868C00847EA5B
:101A0000C0002860286800F00700B84270472078BE
:101A1000800705D57068A16820F0F0000843706069
:101A20002078C007704780B5FFF7F9FE074B0FF22B
:101A300024021B680649C3F303139A5CD040086074
:101A4000086802BD0010024000200240041002405D
:101A50009C000020000000000102030401020304B6
:101A6000060708092F480068C0F3022070470901E3
:101A7000002806D52C4A00F00F00801800F8041C3E
:101A800070472A4A8154704726490A684FF6FF0377
:101A90001A4000F0070042EA0020254A104308607F
:101AA000704770B504460D461646FFF7DBFF00F0A1
:101AB00007000121C0F10702052A2EBF0F2201FAFB
:101AC00002F2521E031D072B34BF0020C01E2A4005
:101AD000824001FA00F0401E304040EA02012046F8
:101AE000BDE87040C3E7012100F01F029140114A98
:101AF000FFE7400942F82010704710B5401EB0F1D2
:101B0000807F01D3012010BD0B4C60600F214FF08E
:101B1000FF30FFF7ACFF0020A0600720206000200E
:101B200010BD00000CED00E018ED00E000E400E066
:101B30000000FA0500E100E010E000E070B50446A6
:101B4000002818BF012C86B03D4903D0022C18BFD5
:101B5000032C03D1086840F48020086000A90FF22C
:101B6000F000384E30F8145000950120019002909A
:101B70000320039056F8240001F052FD56F824008B
:101B80000022294601F001FE06B070BD0FF2C0012F
:101B90002C4B31F8101053F82000012201F0F5BD54
:101BA0000FF2AC01274B31F8101053F8200000223F
:101BB00001F0EBBDF0B5050085B00E46204803D11D
:101BC000016841F40031016041681F4C0FF2880741
:101BD00041F00101416056B900F023F80190022064
:101BE00002900320039054F8250001F019FD012E06
:101BF00015D100F016F802900320039013480190CD
:101C000054F8250001F00CFD0FF250002C5C00226E
:101C10000F2160B2FFF745FF60B2FFF764FF05B028
:101C2000F0BD37F81500009000A9002070470FF2B2
:101C30002801054A31F8101052F8200001F09FBD2C
:101C400014100240A0000020B0000020000011107D
:101C5000400000010002800001000000060050F872
:101C6000041B61B150F8042BD30744BFA9F1010351
:101C70009A180023091F42F8043BFAD1EFE7704796
:101C800070B44FF0004591EA030C44BF6B4002F082
:101C900071BC00BF841A71EB030603D2001BB14173
:101CA000121973414FF4001C1CEB410F34BF7CEB45
:101CB000430443E00C0DA4EB1356352E50DC45EAEB
:101CC000C323DB0A45EAC121C912B6F120050DDDA7
:101CD00063FA05F6EB4086EA0305124218BF45F0A9
:101CE0000105C01851F100010CD213E062FA06F5AB
:101CF000F2405540F3415A40B340F3405A408018F7
:101D0000594107D349085FEA30005FEA350528BF2B
:101D100045F0010501F58011420875F1004250F1CE
:101D2000000041EB045170BC4FF4001C1CEB410F50
:101D300038BF70470020090D090570471CEB410FA3
:101D400010D252EA43060BD0BCEB410F05D80C0D64
:101D5000AB43661E342EB5DD02E0AB43801859411B
:101D600070BC704770BC70474FF4001C1CEB410FF7
:101D700094BF1CEB430F09E041EA030C50EA4C0C02
:101D800052EA0C0C03D28B4208BF8242704714BF48
:101D900099429042704700004FF4001C1CEB410F29
:101DA00094BF1CEB430F09E041EA030C50EA4C0CD2
:101DB00052EA0C0C03D2994208BF9042704714BFFC
:101DC0008B4282427047000010B5040001D101200F
:101DD00010BD00F0F2F80020C4F8C400C4F8C80038
:101DE000C4F8CC00C4F8D000C4F8D400C4F8D800BB
:101DF000207AC00717D52068DFF8A812884205D1DD
:101E0000DFF8A402016841F0005101602068016818
:101E1000226921F4704102F440421143626902F4E4
:101E2000405211430160204600F021F8207A8007DB
:101E300008D520680168E26821F4407102F440721C
:101E400011430160012084F8C1000022002084F8C1
:101E5000C0001C2101FB0041401C8A61CA610A626A
:101E60004A628A6206280A63F3D3002010BD7047D5
:101E700090F8C020012A01D102207047012280F889
:101E8000C020022280F8C12011F1010FFFE7006895
:101E9000D0F8CC2304D122F0020141F0010104E08A
:101EA00022F00D02114341F00201C0F8CC130020D2
:101EB000704770B504460D46FFF756FB064620688E
:101EC000D0F88803C0030DD415F1010FF7D025B168
:101ED000FFF74AFB801B8542F1D2072084F8C1003E
:101EE000032070BD8AE070B500F0FFF901D1022037
:101EF00070BD00F001FA0529D368946805680ED119
:101F00002968C90844EAC10121F018011943296070
:101F100003681168596151680268916117E005EB27
:101F2000C115D5F88060F60844EAC60424F0180408
:101F30002343C5F880300468136804EBC114C4F867
:101F400094300368526803EBC111C1F89820012155
:101F500080F8C110002070BD012280F8C02002224C
:101F600080F8C120704710B500F017F801D10220A9
:101F700010BD00F016F804D1D36843F01003D3600D
:101F800007E002EBC112D2F88C3043F01003C2F824
:101F90008C3000F075F800F011B990F8C020012ADB
:101FA0007047012280F8C020022280F8C120052954
:101FB00002687047012084F8C000022084F8C10044
:101FC000704700F022F801D500F04FF850F82510C6
:101FD000490301D500F03EF850F82510090301D55A
:101FE00000F02DF850F82510C90201D500F01CF8BA
:101FF00050F82500800201D500F05AF8012084F83D
:10200000C100002084F8C00070BDDFF8A00050F8C7
:102010002510C90304D521680A6822F480320A60B9
:1020200050F82510890370472168D1F8942312F0E5
:10203000C00F03D10A6822F480120A607047216839
:10204000D1F8942312F0300F03D10A6822F4002251
:102050000A6070472168D1F8942312F00C0F03D165
:102060000A6822F480220A6070472168D1F894231C
:1020700012F0030F03D10A6822F400320A6070479D
:1020800002680A4C136854F8211019431160704714
:1020900011430160012084F8C100002084F8C000D1
:1020A00070470000007401401810024074000020C6
:1020B0002068D0F8941311F4407F03D1016821F413
:1020C00000110160704700F014F90368D3F89843D9
:1020D0001443012AC3F8984314D0022A17D0042AC3
:1020E00010D0082A13D0102A0CD0202A0FD0402A52
:1020F00008D0802A0BD0B2F5807F03D0B2F5007FE4
:1021000005D00AE000F063F85B085B0003E000F034
:102110005EF823F00203C2F88C30DFF8042552F891
:102120002130DB0304D503681C6824F480341C6070
:1021300052F821309B0309D50368D3F8944314F077
:10214000030F03D11C6824F400341C6052F82130C2
:102150005B0309D50368D3F8944314F00C0F03D143
:102160001C6824F480241C6052F821301B0309D51C
:102170000368D3F8944314F0300F03D11C6824F49F
:1021800000241C6052F82130DB0209D50368D3F823
:10219000944314F0C00F03D11C6824F480141C6015
:1021A00052F82110890209D50168D1F8942312F45C
:1021B000407F03D10A6822F400120A60012180F8EE
:1021C000C110002180F8C010002010BD000002687E
:1021D00002EBC112D2F88C30704710B590F8C120D4
:1021E000022A1CBF90F8C020012A01D1022010BD94
:1021F000FFF7B2FE0268D2F8A0330C6823F00203A6
:1022000023434C6823F03C0323438C6823F470730E
:102210002343CC6823F4806323430C69C2F8A443AE
:1022200004684A69C4F8A82302688969C2F8AC1333
:102230000168C1F8A033C1E738B500F0ACF90AD0A5
:1022400000F00AF801D1022032BD00F0AAF900F036
:1022500091FB00F005F832BD94F8C00001287047EA
:1022600001206870002084F8C000704710B500F0AD
:102270003CF81CBF90F8C030012B01D1022010BDEA
:1022800000F037F801290468D4F8803306D0022919
:102290000CD0042912D0082918D01EE01168090CAE
:1022A00061F3124300F01DF8D16316E01168090CC8
:1022B00061F3D54300F015F811640EE01168090CC4
:1022C00061F3985300F00DF8516406E01168090CB1
:1022D00061F35B6300F005F891640168C1F8803335
:1022E0006CE7516804F56072704790F8C130022BBA
:1022F0007047012380F8C030022380F8C130704756
:102300000000000070B500F072F81CBF94F8C00027
:102310000128164601D1022070BD012084F8C000BA
:102320000220052D84F8C10029D120680268D0F868
:10233000A013F36A21F480311943736922F020025B
:102340001A43B36922F400621A43F36922F48062EB
:102350001A43336A22F0C0621A43736A22F00062A1
:102360001A439200B36A920842EA8302336B22F066
:1023700000521A4302602068C0F8A01302E0204611
:1023800000F014FA1C2000FB054031680162052DA5
:1023900071684162B1688162F168C162316901634B
:1023A00023D8DFE805F017120D08031C00F025F80C
:1023B00041F0200117E000F020F841F0100112E098
:1023C00000F01BF841F008010DE000F016F841F0B4
:1023D000040108E000F011F841F0020103E000F010
:1023E0000CF841F00101C0F88413FFF707BE044662
:1023F0000D4694F8C100022870472068D0F8841375
:10240000704710B5FFF771FF1CBF90F8C030012B6B
:1024100001D1022010BDFFF76CFFDFF8CC4400F0C3
:102420001AF8D1F8B8302340146823435468234382
:102430009468234314692343D4682343546943EACB
:10244000044394692343146AD26923431A43C1F8AD
:10245000B820B3E61A68036803EBC11170470000A7
:1024600030B500F084F81CBF90F8C040012C01D1B9
:10247000022030BD012480F8C0400224052980F8E4
:10248000C14017D1012A09D0022A0BD0042A0DD04D
:10249000082A02BF19680268D16232E0026819682E
:1024A000D1612EE00268196851622AE00268196859
:1024B000916226E0012A06D0022A0AD0042A23D0FB
:1024C000082A26D01DE01A68FFF7C5FFC1F89C2036
:1024D00017E000F037F8A2605A6892B100F038F8BF
:1024E00024F4405400F03AF82C4300F025F821D0B1
:1024F0005A68B2F5405F04D19A68FFF7ACFFC1F8A3
:10250000A82000F08FF830BDFFF7A4FF9C31CA600F
:10251000F7E700F017F822615A68002AF1D000F0BE
:1025200017F824F4404400F019F844EA850400F058
:1025300003F8DDD19A68C7E7C2F880405A68B2F55F
:10254000005F704704681A6804EBC1149C3470473C
:10255000026802EBC112D2F880407047C2F8804096
:10256000026802EBC112D2F880405D68704790F8B3
:10257000C140022C704738B500F00DF80AD0FFF7C3
:102580006BFE01D1022032BD00F00BF800F0AEF975
:10259000FFF766FE32BD044604F1C00568780228E4
:1025A0007047012084F8C000022068702046704700
:1025B00090F8C020012A01D102207047012280F842
:1025C000C020022280F8C1200268D2F89433194357
:1025D000C2F89413C3E090F8C020012A01D1022070
:1025E0007047012280F8C020022280F8C1200268D2
:1025F000D2F898331943C2F89813B0E090F8C0208D
:10260000012A01D102207047012280F8C020022255
:1026100080F8C12002681368194311609FE0000030
:1026200074000020012180F8C110002180F8C01042
:10263000002070472DE9F047FFF7D9FE1FBF0220A9
:1026400084F8C10094F8C000012808BF02204ED0D1
:10265000012084F8C000E803DFF844A51BD5D4F8B6
:10266000B000C0B1D4F8C400C0F830A0D4F8C41091
:10267000DFF830058862D4F8BC30D4F8B820D4F83C
:10268000B410D4F8C40000F094FE2068C168D4F8F7
:10269000B0201143C1600027DFF80C85DFF80C95EE
:1026A00059F8270005421FBF1C2000FB0746706A2F
:1026B000002814D0394600F01CF8C0F830A0C0F84B
:1026C0002880336BF26AB16A00F073FE206800EB79
:1026D000C710D0F88C10726A1143C0F88C107F1CA0
:1026E000052FDDD3206801682943FFF7D2FCBDE840
:1026F000F087204600F01ABA90F8C120022A1CBFC9
:1027000090F8C020012A01D102207047012280F8F0
:10271000C020022280F8C1200268D2F8A0335B08F2
:1027200041EA4301C2F8A01319E090F8C110022950
:102730001CBF90F8C010012901D10220704701216F
:1027400080F8C010022180F8C1100168D1F8A423DC
:1027500042F00102C1F8A42301E0C2F88413012170
:1027600080F8C110002180F8C01000207047FF29B8
:1027700008BF00F02BBA052908BF00F077BAF6E2CF
:102780007047704770477047704770477047704791
:102790007047704770477047704770477047704781
:1027A0007047704770477047704770472DE9F04198
:1027B000006800EBC113D3F8804024012409C3F85A
:1027C000804003F18004D3F88050A76E666ED4F881
:1027D0005480D0F8A083D2F814E0D2F834C025F0A9
:1027E00020054EEA0505D2F818E025F400654EEA0A
:1027F0000505D2F81CE025F480654EEA0505D2F8FF
:1028000020E025F0C0654EEA0505D2F824E025F069
:1028100000654EEA0505D2F828E02D014EEA1515AF
:1028200025F4003E156BB5F1005F08BF4EF4003E85
:102830002EF040054CEA050525F4802E156D45EA7D
:102840000E0525F0FC7E956C45EA0E0EDFF8605310
:102850002F4092F8385005F01F052F43D56B2F43BA
:10286000BCF1000F03D1156C26F480762E43556C15
:10287000B5F5606F18BFB5F5F05F02D1BCF1400F40
:1028800002D126F4F0562E43D56C59B1022915D049
:102890000ED3042918D03EBF28F48011D26A41EA31
:1028A000021816E0D26A28F4003141EA420810E02A
:1028B000D26A28F4802141EA82080AE0D26A28F428
:1028C000002141EAC20804E0D26A28F4001141EA7A
:1028D0004218C3F880E0A76666666565C0F8A08305
:1028E000BDE8F081000000000020003CF0B5006869
:1028F00000EBC11101F1B800FF24C56AD1F8B8108E
:10290000012A14D0022A18D0042A10D0082A14D080
:10291000102A0CD0202A10D0402A08D0802A0CD0AF
:10292000B2F5807F03D0B2F5007F06D00AE05A6886
:10293000426000249A68826004E05A68C2601024F1
:102940009A680261FE26A640B5431E68DF681A69D0
:102950003E435F6916433E439F693E43A64035436D
:10296000082A08BF11F0022F02D1D969A1400D43F6
:10297000C562F0BD70B50068D0F8B05300F56C7357
:1029800001295C689E6817D0022923D0042933D01E
:10299000082943D0102953D0202965D0402972D06E
:1029A000802900F08380B1F5807F00F09280B1F53E
:1029B000007F00F0A18070BD1368A90943EA81116E
:1029C000137903F0040319439368194300F0A9F83D
:1029D000114346E0136825F47C6141EA8311536892
:1029E0009B0103F480731943936841EA831100F05B
:1029F00098F841EA821134E0136825F47C3141EA09
:102A0000033153681B0303F480431943936841EA7D
:102A1000033100F086F841EA023122E0136825F420
:102A20007C0141EA834153689B0403F480131943FA
:102A3000936841EA834100F074F841EA824110E072
:102A4000136825F07C5141EA036153681B0603F0CB
:102A500080631943936841EA036100F062F841EA38
:102A60000261C0F8B01370BDD168300941EA0010AE
:102A70006109146844EA41111479926804F004046D
:102A8000214311434AE0D16826F4707040EA811076
:102A900024F4F861146841EA841154689268A4012E
:102AA00004F48074214341EA821137E0D16826F4AE
:102AB000704040EA013024F4F831146841EA0431EE
:102AC00054689268240304F48044214341EA0231AB
:102AD00024E0D16826F4701040EA814024F4F80123
:102AE000146841EA844154689268A40404F4801490
:102AF000214341EA824111E0D16826F0706040EA4A
:102B0000016024F0F851146841EA04615468926845
:102B1000240604F08064214341EA02615960986010
:102B200070BDC0F8B013126970470000002205297B
:102B300000F1C40310D8DFE801F006080A0C0E0308
:102B4000D0F8C42008E05A6806E09A6804E0DA6821
:102B500002E01A6900E05A69104670470068154A99
:102B60004FF0FF31904208BF052117D0124A904222
:102B700008BF002112D0114A904208BF01210DD098
:102B80000F4A904208BF022108D00E4A904208BF67
:102B9000032103D00C4A904208BF04210846704725
:102BA0005B300008052F00086B2F00087400002020
:102BB000E0FFFF7F1C000240300002404400024062
:102BC000580002406C0002408000024010B500F046
:102BD000C9F8C90708D500F0C1F8C90704D5012113
:102BE00041602046FFF7CCFD00F0BDF8890708D50D
:102BF00000F0B4F8890704D5022141602046FFF7B0
:102C0000C0FD00F0B0F8490708D500F0A7F8490763
:102C100004D5042141602046FFF7B4FD00F0A3F87D
:102C2000090708D500F09AF8090704D50821416082
:102C30002046FFF7A8FD00F096F8C90608D500F079
:102C40008DF8C90604D5102141602046FFF79CFD90
:102C500000F089F8890608D500F080F8890604D5C7
:102C6000202141602046FFF790FD10BD10B500F017
:102C700079F8C9030BD500F071F8C90307D54FF4F3
:102C800080314160FFF706FA2046FFF77FFD00F034
:102C90006AF8890309D500F061F8890305D54FF476
:102CA000003141602046FEF793FB20684168C90768
:102CB00007D5C168C90704D5012100F04BF8FFF71B
:102CC00068FD20684168890707D5C168890704D570
:102CD000022100F03FF8FFF75DFD206841684907D9
:102CE00007D5C168490704D5042100F033F8FFF780
:102CF00052FD20684168090707D5C168090704D556
:102D0000082100F027F8FFF747FD20684168C90651
:102D100007D5C168C90604D5102100F01BF8FEF7DD
:102D2000F2FA20684168890607D5C168890604D58A
:102D3000202181602046FFF72AFD2068416849066E
:102D400007D5C168490604D5402100F003F8FFF714
:102D50001FFD10BD816020460521704700F562709F
:102D60008168704704462068D0F88813704738B5EA
:102D700004460D4600F0C0F8C90708D584308168C4
:102D8000C90704D5012100F0B3F8FFF702FD00F0F8
:102D9000B3F8890708D584308168890704D50221F2
:102DA00000F0A6F8FFF7F6FC00F0A6F8490708D5F2
:102DB00084308168490704D5042100F099F8FFF7B1
:102DC000EAFC00F099F8090708D584308168090702
:102DD00004D5082100F08CF8FFF7DEFC00F08CF839
:102DE000C90608D584308168C90604D5102100F0D1
:102DF0007FF8FEF788FA00F07FF8490608D584309E
:102E00008168490604D5402100F072F8FFF7C0FC44
:102E100000F072F8090608D584308168090604D5E7
:102E2000802100F065F8FFF7B8FC00F065F8C905EF
:102E300009D584308168C90505D54FF4807100F04B
:102E400057F8FFF7ABFC00F057F8890509D5843037
:102E50008168890505D54FF4007100F049F8FFF746
:102E6000A0FC00F049F8490509D58430816849057E
:102E700005D54FF4806100F03BF8FFF793FC00F0BC
:102E80003BF8090509D584308168090505D54FF45B
:102E9000006100F02DF8FFF786FC00F02DF8C90462
:102EA00009D584308168C90405D54FF4805100F0FC
:102EB0001FF8FFF779FC00F01FF8890409D584306A
:102EC0008168890405D54FF4005100F011F8FFF72F
:102ED00067FC00F011F8490409D584308168490481
:102EE00005D54FF4804100F003F8FFF758FC31BDE1
:102EF0004160204629467047206800EBC510D0F895
:102F00008410704780B5406A0168CA68D20303D54F
:102F10000521FFF73EFC01BDCA68920303D50521D8
:102F2000FFF738FC01BDCA68520303D50521FFF73E
:102F300032FC01BDCA68120303D50521FFF72CFC42
:102F400001BDCA68D20203D50521FEF7DCF901BD37
:102F5000CA68920202D5FFF71AFC01BDC96849028E
:102F600044BF0521FFF714FC01BD10B5446AFFF70B
:102F7000F5FDC1B2206800EBC110D0F88C20D2035F
:102F800003D52046FFF705FC10BDD0F88C20920336
:102F900003D52046FFF7FEFB10BDD0F88C2052036E
:102FA00003D52046FFF7F7FB10BDD0F88C201203A5
:102FB00003D52046FFF7F0FB10BDD0F88C20D202DD
:102FC00003D52046FEF79FF910BDD0F88C205202A1
:102FD00003D52046FFF7DCFB10BDD0F88C20120291
:102FE00003D52046FFF7D9FB10BDD0F88C20D201C5
:102FF00003D52046FFF7D2FB10BDD0F88C209201FC
:1030000003D52046FFF7CDFB10BDD0F88C20520130
:1030100003D52046FFF7C6FB10BDD0F88C20120167
:1030200003D52046FFF7BFFB10BDD0F88C20D2009F
:1030300003D52046FFF7B8FB10BDD0F88C209200D6
:1030400003D52046FFF7ACFB10BDD0F88C00400044
:1030500044BF2046FFF7A3FB10BD80B5406AFFF7D1
:10306000A4FB01BDB0B581EA030C0CF0004C40F2AA
:10307000FF7515EA11541DBF15EA1357AC42AF4254
:1030800039E0E41923EA455343F48013C90241F0BF
:10309000004141EA505EC7021100A7FB020200286E
:1030A0004FF00000EEFB01204FF00001E3FB072191
:1030B00018BF42F00102401800214941E3FB0E0114
:1030C000A4F580640F0302D252004041494154F1FB
:1030D00001046CDD470872F1004250F1000051EB31
:1030E0000451A1F580115CBF41EA0C01B0BD4CEA6E
:1030F00005510020B0BD05EA1357AC4214BFAF42E2
:1031000041E050EA410E1CBF52EA430E02E0614624
:103110000020B0BD24423C441BD15FEA070EF6D02C
:10312000090302BF01460020AEF1140EB1FA81F787
:10313000AEEB070401FA07FE0C37C7F1200100FAD5
:1031400007F7C8404EEA000E23EA455343F48013C4
:10315000A2E733F00043B3FA83F704BFB2FA82FE6A
:1031600077440B3FE41BB7F1200E2FBF02FA0EF39A
:10317000BB40C7F1200E22FA0EFE38BF43EA0E0311
:10318000BA40641C82E750EA410E14BF52EA430E73
:103190006FF000014FF4001717EB430F8ABF194679
:1031A00017EB410FB5E74CEA05510020B0BDD4F153
:1031B0000104B4F120070FDAC4F12007520828BF38
:1031C00042F0010210FA07F501FA07F7E1BF2A43BE
:1031D000E0403843E1400FE0352C98DCC7F1200493
:1031E00052EA400220FA07F218BF42F0010231FA17
:1031F00007F0A1400A43002172F1004250F10000A3
:1032000051EB0C01B0BD00004FEAF17CBCF1E04C89
:103210002CBFBCF5001F11E05FEA4C0C34BFBCF1C1
:103220007F5F2EE05FEA9C0C4FEA0C1C4FEA3C0CDF
:10323000C10071F100414CEB50707047C90241EA86
:103240005051C00218BF41F0010141F000414FEA66
:103250006C50C0F10900212810D240EACC7CCCF19E
:10326000200C11FA0CF070F10040CCF1200C21FA86
:103270000CF00CF0004C40EB0C0070474FEACC70A7
:103280007047490011F5001F04D84FEACC10FF30F9
:10329000C0057047C81770475FF0FF0C1CEAD0519B
:1032A00014BF614506E0C110400721F0E04101F183
:1032B0006051704779B900F0004100020AD0B0FABD
:1032C00080FC00FA0CF001F16051A1EB0C5101EB14
:1032D000D0214005704741020CBF40F4E0016FF07F
:1032E000000100207047000083B582B09DED020B05
:1032F0008DED000BDDE90023C3F30A5140F2FF72AC
:10330000914208D0002904BF190350EA113011D1AD
:10331000104905B000BD190350EA113011D10398CE
:1033200000284CBF9FED090B9DED020B51EC100BDB
:1033300005B000BD002000900022064B02A801F05D
:10334000CFF9DDE9020105B000BD0000000000007A
:10335000000000000000F03F80B551EC100BFFF7BB
:10336000C3FF41EC100B01BD08B90120704790F874
:10337000211009B980F82010022180F8211001687D
:103380000A6843686FF30D121A4383681A43C368CF
:103390001A4303691A4343691A4383691A43C36989
:1033A0001A430A6000214163012180F821100020A6
:1033B000704738B5044694F82000012801D1022056
:1033C00032BD00F013F82068016841F0020101608D
:1033D000016841F004010160016841F008010160E9
:1033E000016841F001010160002032BD012084F834
:1033F0002000022084F82100206805686D086D0017
:1034000005602046FFE710B5046863604068102837
:1034100007BFA260E160A160E26010BD10B50400CA
:1034200001D1012010BD207918B96071204600F04B
:1034300017F8022020710020206101202071002057
:1034400010BD10B5040001D1012010BD0220207173
:10345000204600F006F8002020612071607110BD48
:103460007047704718B50024009400290068009048
:103470000CBF02F1080102F1140100980818009035
:1034800000980360002012BD10B54279012A01D1D5
:10349000022010BD012242710124022202718C40DF
:1034A00002681368234313600029026811680AD177
:1034B000490714D5116801F0380138290FD1516836
:1034C00041F001010AE0490309D5116801F46011D6
:1034D000B1F5601F03D1516841F002015160012133
:1034E000017100214171002010BD30B54379012BDD
:1034F00001D1022030BD0123437140F6FE75022345
:103500000371954003681C68AC430D68002A0CBF2A
:10351000496889682943914021431960C0240168A2
:103520000B6804FA02F223EA02020A60FFE70121B3
:10353000017100214171002030BD000038B5054601
:10354000002415B1E86AC00601D5012435E0E86A17
:1035500048B985F828003048016841F00101016050
:10356000284600F043F8009428682C4A016800912E
:10357000009911406A6800F022F8AA6800F01FF86C
:10358000AA6921F4402100F01AF8EA6821F4705188
:1035900000F015F82A6921F4004100F010F86A697A
:1035A00000F00DF8EA6900F00AF82A6A00F007F85E
:1035B0000160E86A08B90120E862204632BD114383
:1035C00000910099704738B50446002514B1E06AAF
:1035D000C00601D5012507E021680D60204600F0F6
:1035E00006F8E56284F82850284632BD70477047D7
:1035F000002168B1C26AD2060AD4C26A012A07D180
:103600000268136843F0010313600222C26200E003
:103610000121084670470000181002408FFFBFFFCD
:103620002DE9F0470027604A604BDFF884814FF0B6
:103630000F094FF0010A29E006FA04F42C4343F87D
:103640002E406FEA0C0614684D683440ED0348BF05
:103650004CEA0404146054684D683440AD0348BF1C
:103660004CEA0404546094684D683440ED0248BF4D
:103670004CEA04049460D46806EA040E4C68A40280
:1036800048BF4CEA0E0EC2F80CE07F1C0C6834FAFE
:1036900007F572D00AFA07F515EA040CF5D04C6864
:1036A000022C18BF122C10D1FC0800EB840E07F07E
:1036B0000704DEF82050A40009FA04F6B5430E69A9
:1036C00006FA04F42C43CEF820404FEA470E056872
:1036D0000E79032404FA0EF4E44306F003062540B1
:1036E00006FA0EF6354305604D68012D18BF022D10
:1036F00003D0112D18BF122D10D18568CE6825403A
:1037000006FA0EF6354385600AFA07F64568B543B2
:103710004E68C6F30016BE4035434560C5682C4070
:103720008D6805FA0EF52C43C4604C68E400ACD5F6
:10373000D8F8004044F00104C8F800404FEA970E62
:1037400007F0030453F82E50A40009FA04F6B54319
:10375000B0F1904F08BF00260ED0164EB04208BF01
:10376000012609D0144EB04208BF022604D0134EE1
:10377000B0420CBF032605265EE7BDE8F08700696E
:10378000084018BF0120C0B2704702B90904816126
:1037900070470B4A1368034200D1704780B5106030
:1037A000FDF76EFD01BD000000040140080001406E
:1037B000181002400004004800080048000C0048AF
:1037C0001404014038B50025044600950CB90120C9
:1037D00032BD606A012804BFE069012801D100F010
:1037E00042FA94F84100042839D094F8410040BBD3
:1037F000204601F0D8F820688068C00021D400F08D
:1038000035F90546012D1CD0022084F841002068BE
:10381000816821F0405181602068816841F08051C9
:103820008160DFF80406DFF804160068B0FBF1F0F1
:103830000A21484301E00098401E009000980028AB
:10384000F9D120688168C90002D58068800006D55A
:1038500000F005FA0125606C40F00100606494F806
:10386000410004286ED02068816849076AD402218B
:1038700084F84110B0F1A04F82680CBFDFF8B0159A
:103880004FF0A04102F00302012A02D10068C007F4
:103890000FD4886800F00300012802D10868C0072F
:1038A00007D4DFF890050168626821F440311143C4
:1038B0000160A06BE169E268012814BF4FF48050F9
:1038C000002040EA41301043A2681043626A012A96
:1038D00008BF002905D1A16A491E490441F480317D
:1038E0000843E16A012902D0226B11430843216891
:1038F0008A6812F00C0F0AD1CA68DFF8B4361A4091
:10390000CA60626BA169520042EA813108432168B2
:10391000DFF8A036CA681A401043C8602069012841
:103920002068016B05D1226A0909521E42EA011181
:1039300001E009090901016300206064012084F8A5
:10394000410002E000F08BF90125284632BD10B598
:1039500000F0E0F940071AD400F0D8F917D000F0D1
:10396000DDF9012812D094F8411022290CBF322130
:10397000122100F06CF8DFF8BC242168126812F004
:103980001F0F18BFB1F1A04F02D16AE012E0022070
:1039900010BD10B500F06DF801D1022010BD00F08F
:1039A0006DF8012806D000F061F801281CBF012144
:1039B00084F84110002184F8401010BDF8B5044689
:1039C0000D466069082808BF08260AD0DFF864049D
:1039D000016811F01F0F15D12068C068C00715D409
:1039E0000C26FDF7C1FD074620680168314210D161
:1039F00015F1010FF8D025B1FDF7B6FDC01B8542CA
:103A0000F2D21CE0006810F4404FE9D000F003FA55
:103A1000F2BDA16909B90C21016094F841000428A4
:103A20001CBF94F84100352807D094F841002528A0
:103A30000CBF3520152084F841000020F2BD032082
:103A400084F84100002084F840000320F2BD84F88F
:103A50004110002184F8401061641C21226811602B
:103A600070478A6842F004028A6010BD204600F068
:103A7000C7BC044694F8400001287047012084F830
:103A800040006C21204600F0F0BC00680821016075
:103A9000006C704710B5044620680168490702D5DC
:103AA0004168490705D40168090728D54168090715
:103AB00025D594F84110042907D094F84110252900
:103AC0000CBF3521152184F84110C16811F4406FF5
:103AD00004BFE16900290CD10168090709D5816893
:103AE000490704D4416821F00C01416001E000F075
:103AF000BAF8204600F058FF0C20216808602068C2
:103B00000168890602D54168890605D4016849061D
:103B10002FD5416849062CD594F84110042907D0C7
:103B200094F8411015290CBF3521252184F8411046
:103B3000C16C11F0C00F09D0C168890113D5C168EB
:103B400011F4406F04BFE16900290CD101684906F6
:103B500009D58168090704D4416821F060014160FA
:103B600001E000F080F82046FDF76FFB602021683F
:103B7000086020680168090602D5416809060BD46F
:103B80000168C90502D54168C90505D401688905E0
:103B90001DD5406880051AD5204600F006FF206834
:103BA0000168090604D5062184F8411080210AE045
:103BB0000168C90502D500F042F804E001688905F2
:103BC00003D500F036F8016001E000F048F8206805
:103BD0000168C9061FD54168C9061CD5A16B01291A
:103BE0000DD0DFF850120A6812F01F0F03D1C06821
:103BF000C00704D40CE0086810F4404F08D000F06F
:103C00002EF8606C40F002006064204600F0CEFEAA
:103C100021681020086020680168490508D54168BE
:103C2000490505D500F011F80160204600F01AF9A9
:103C300010BD082184F841104FF40071704707212E
:103C400084F841104FF480717047042184F84110CA
:103C5000616C41F0080161644FF480617047042099
:103C600084F841007047042084F84100606C40F003
:103C700001006064704770B504460E4600F046F8D7
:103C800001D1022070BD012084F84000FFF7EEFE54
:103C90000546012D22D0012084F84100012E206824
:103CA000816821F08041816004D12068816841F001
:103CB000804181602068816841F000418160FDF7AA
:103CC00053FC064620688068002807D5FDF74CFCA9
:103CD000801B0B28F6D300F09EF870BD00F001F8B1
:103CE00070BD002084F84000284670470068D0F876
:103CF000B400012901D1000C704700F07F0070472B
:103D0000DFF80828126812F01F0F704794F840007F
:103D1000012870470446206880687047012084F8B5
:103D20004000204600F04EBB10B5FFF7F3FF000740
:103D30002FD4FFF7EBFF2CD0FFF7F0FF012827D09F
:103D400000F029F80CBF3221222100F028F892025D
:103D500003D54A6842F480624A6061690829216893
:103D60004A6807D122F020024A6021684A6842F07E
:103D7000400201E042F060024A602168CA68920194
:103D800008D4FFF7BDFF18BFB1F1A04F02D112E078
:103D900010E6022010BD94F841101229704784F8F3
:103DA0004110002184F84010616460212268116094
:103DB0002168CA6870478A6842F008028A6010BDAC
:103DC00010B5FFF756FE01D1022010BD00F01CF81F
:103DD000012818D021684A6822F48C624A60216860
:103DE000896849070CD4FFF7D6FF1CBF94F841102F
:103DF000322905D0FFF73AFE012804D0012100E066
:103E0000122184F84110D5E5012084F8400060219A
:103E1000204600F02ABB042084F84100002084F8EA
:103E200040000120704700009C00002040420F002D
:103E3000000100500803005000686022022902605F
:103E40000AD00CD3042901D003D308E08030C06825
:103E50007047803080687047803040687047D0F885
:103E6000800070477047F8B500F0F8F901D10220E2
:103E7000F2BD00F067FA640770D44E6806271F256C
:103E80000C68052E05D27E431F6B00F095F81C636D
:103E90001AE00A2E07D2761F16FB07F65F6B00F0BA
:103EA0008BF85C6310E00F2E07D20A3E16FB07F674
:103EB0009F6B00F081F89C6306E00F3E16FB07F64F
:103EC000DF6B00F079F8DC6307231468A56815F050
:103ED0000C0F1ED10E688D6800F09CF906D011D32E
:103EE000032F09D005D3042F09D00BE000F088F987
:103EF0000FE000F07BF90CE000F06EF909E000F053
:103F000062F905E000F0F3F903D1E56E6D006D088C
:103F1000E56600F057F802D12568ED0746D400F0B9
:103F2000ABF902D11C68240203E0112903D11C68FB
:103F3000E4013BD404E0122938D11C68640235D472
:103F40001468A668B4F1A04F0CBFDFF8C4554FF059
:103F5000A04500F026F902D12668F60724D400F027
:103F60001FF902D12D68ED071ED410290CD1B4F130
:103F7000A04F1BD100F019F90091009900291CBF36
:103F80000099491EF8D111E0112906D1B4F1A04FD2
:103F90000CD1196841F0807104E0122906D119682A
:103FA00041F48001196001E000F096F9F4E00000AE
:103FB000FDBFFFFF07C0F0FFB54027EA0505B4408D
:103FC0002C4370471468A56805F00305012D704760
:103FD000F8B500F043F901D10220F2BD012382F8C7
:103FE00040301469DFF82C35002C1CBF8C69012C83
:103FF0001FD14C68012C19D10C688D6A240200F085
:1040000034F923461468E36413689C68240740D499
:104010000D6A4C6A002DDD6825F4401545EA4454CC
:1040200032D1CD6944EA0554DC6032E000F054F945
:10403000EAE75C6844B914681C608C695C608C6950
:104040008D6A641E00F011F914681D68AC4213D12A
:104050004C6806256C43A41C9D681F26A640B543EA
:104060000E6806FA04F42C435D689C606D1E5D606A
:10407000CAD11368DC64C7E7042082F8410000203D
:1040800082F840000120F2BDDC60CB69012B00F01A
:1040900028F91468A568072315F00C0F2FD18D6A35
:1040A000012DE56825F0007504D10E6A45EA4665E4
:1040B000E56004E0E5600C6A012C00F012F90E687E
:1040C0008D68146800F0A6F806D011D3032F09D02C
:1040D00005D3042F09D00BE000F092F80FE000F0B8
:1040E00085F80CE000F078F809E000F06CF805E0E5
:1040F00000F0FDF803D1E56E6D006D08E566FFF791
:1041000061FF02D12568ED0746D400F0B5F802D171
:104110001C68240203E0112903D11C68E4013BD48C
:1041200004E0122938D11C68640235D41468A668EA
:10413000B4F1A04F0CBFDFF8D8534FF0A04500F00A
:1041400030F802D12668F60724D400F029F802D10D
:104150002D68ED071ED410290CD1B4F1A04F1BD14E
:1041600000F023F80091009900291CBF0099491E16
:10417000F8D111E0112906D1B4F1A04F0CD1196882
:1041800041F0807104E0122906D1196841F48001E0
:10419000196001E000F0A0F8002182F84010F2BDA3
:1041A000AE6806F00306012E7047196841F400015D
:1041B0001960DFF86433DFF864130968B1FBF3F1C9
:1041C0000A2359437047E76E3E400F6846EA876608
:1041D000354345F000457047A76E3E400F6846EAFC
:1041E0008766354345F00045A5667047676E3E40DB
:1041F0000F6846EA8766354345F0004565667047B7
:10420000276E3E400F6846EA8766354345F0004515
:10421000256670470A2E0BD30A3E06EB4606A769B1
:1042200003FA06FC27EA0C07B5403D43A56109E007
:1042300006EB4606676903FA06FC27EA0C07B54059
:104240003D43656114684D69E6680F69C6F3C106B0
:104250007600B540012FDFF8C862704702460020A3
:10426000009092F84030012B7047012D02D02C4372
:10427000CD6A2C439C6070470E680125B540CE681E
:10428000012E05D0D4F8B030AB43C4F8B0301EE0F6
:10429000D4F8B0603543C4F8B0500E688D68146827
:1042A0000A2E0AD3093E06EB4606A769B34027EA61
:1042B0000303B5402B43A36109E0761C06EB4606D9
:1042C0006769B34027EA0303B5402B43636109687C
:1042D000DFF8383210297047042082F841000120AD
:1042E000704703D1042082F8410001207047256EF9
:1042F0000E6805F0F845B5EB866F03D1256E6D00AD
:104300006D0825661468656E0E6805F0F845B5EB16
:10431000866F03D1656E6D006D0865661468A56EC5
:104320000E6805F0F845B5EB866F03D1A56E6D00FC
:104330006D08A5661468E56E0E6805F0F845B5EBE6
:10434000866F7047012382F8403013689C6870477D
:1043500030B590F840300022012B01D1022030BD51
:10436000012380F8403003689D68B3F1A04F0CBF73
:10437000674C4FF0A04405F00305012D02D11B68E6
:10438000DB0716D4A36803F00303012B02D12368D3
:10439000DB070ED45D4B634D1C682C400D682C432D
:1043A0004D6889682C432143446B41EA44311960CC
:1043B00003E0042180F841100122002180F8401020
:1043C000104630BD38B500F03DF802D10168C9078C
:1043D00014D481686FF39E1179B9816841F00101AD
:1043E0008160FDF7C1F8054620680068C00705D464
:1043F000FDF7BAF8401B0328F6D32AE0002032BDAF
:1044000038B500F01FF81BD10168C90718D58168BD
:1044100001F00D01012912D1816841F00201816092
:10442000032021680860FDF79FF805462068806832
:10443000C00705D5FDF798F8401B0328F6D308E020
:10444000002032BD04462068816801F00301012983
:10445000704700F001F832BD042084F84100606C20
:1044600040F0010060640120704770B50446206888
:10447000826812F00C0F47D0C268920112D5E2692F
:10448000012A04BFA269012A0CD10C21264A00E0AE
:10449000521E03685B0602D4002AF9D131E04022A3
:1044A000026001E060290CD020688268520706D5BE
:1044B0008268920703D4826842F0100282600C295D
:1044C00012D020688268120706D58268920703D44A
:1044D000826842F020028260602903D06C2903D1F7
:1044E0000C2502E0082500E00425FDF73DF806460E
:1044F00020688068284207D0FDF736F8801B0C281A
:10450000F6D3FFF7A9FF70BD002070BD080300506F
:10451000000100501402002040420F009C000020C7
:1045200000F0FF83E010FFFF0094090000B500BF1A
:10453000130096469446103928BFA0E80C50FAD8CC
:104540005FEA417C28BF0CC048BF40F8042BC90774
:1045500028BF20F8022B48BF00F8012B00BD000047
:1045600070B44FF0004591EA030F44BF6B40FDF774
:1045700091BB00BF841A71EB030604D26E40001B8E
:10458000B141121973414FF4001C1CEB410F34BFB1
:104590007CEB430684E00C0DA4EB1356362E7DDC39
:1045A000012E43DC45EAC32343EA525312BFD20231
:1045B00092025B08240545EAC12141EA5051D2EB41
:1045C000C020994125D407D1B0FA80F610FA06F13F
:1045D00064D00020203608E0B1FA81F6B140C6F17F
:1045E000200220FA02F21143B0404FEAF474B4EB17
:1045F000465434F001064FEA74040AD8D6F5001682
:10460000760D04F00044F04061FA06F25040F140AB
:104610004840C00A40EA415021F0004128BF5FEA0B
:10462000500550F1000044EBD12137E045EAC323A7
:10463000DB0A45EAC121C90AB6F120050EDD42EACE
:104640000242120CC5F1200603FA06F6EB4042EADC
:1046500006056D42984161F100010DE062FA06F530
:10466000F240554063FA06FC82EA0C02F3405A40DD
:104670006D42904161EB030111F4801F05D1641E6E
:10468000620502D06D004041494121F48011430888
:1046900075F1004350F1000041EB045170BC7047CC
:1046A0001CEB410F15D223F0004352EA43060BD016
:1046B0004FEA4C0CBCEB410F04D80C0D661E342E97
:1046C000B7DDEBE7801A994150EA410608BF0021A7
:1046D000E4E708BF1CEB430F28BF6FF00001DDE7E4
:1046E0002DE9704C04462DED088B94ED009B43ECB6
:1046F000182B51EC190B00F05AF9064651EC180B27
:1047000000F055F931000E9D06D500284DD4022841
:1047100005D184ED008B42E1022EF8D121E050B9A1
:1047200051EC190B0022344B00F062F90FD084EDEC
:10473000008B002033E1012818D151EC190B002225
:104740002E4B00F055F918BF84ED008B51D100F0CD
:104750005FF9212101604FF0FF306FF00041C4E9A3
:104760000001BDEC088B0220BDE8708C7EB984EDA1
:10477000008B2946204600F051F9040018BF012C97
:1047800040F00C8100F044F92221016006E151EC77
:10479000190B0022184B00F02BF90DD151EC180B1E
:1047A000FEF760FCC4E9000123E051EC190B002284
:1047B000134BFDF7F1FA0BD251EC180B0023FEF767
:1047C00051FCC4E90001BDEC088B0020BDE8708CF1
:1047D00001220C4BFDF7C8FA16D851EC180B002239
:1047E000054BFEF73FFCC4E9000100F011F922215E
:1047F00001600120D3E000BF0000F07F0000F0FF67
:1048000000C89CC000C89C40384A394BFEF72AFCBF
:1048100000220023FDF7C0FA34BF9FED360B9FED59
:10482000370B53EC102BFDF72BFA00F081F90646FD
:1048300000F0A4F941EC1A0B4FF07842314BFEF72F
:1048400011FC02460B4651EC190BFFF789FE82461C
:104850008B4653EC1A2B2C482C49FEF703FC0246DE
:104860000B4650465946FFF77BFE6FF00102284B7E
:10487000FDF77AFA41EC190B05D80022254BFDF71C
:104880008BFAC0F07D8053EC192BFEF7EBFB41EC6B
:104890001A0B214A214BFEF7E5FB214A214BFDF77C
:1048A000EFF953EC1A2BFEF7DDFB1F4A1F4B41ECCF
:1048B0001B0B51EC1A0BFEF7D5FB1D4A1D4BFDF7E8
:1048C000DFF953EC1A2BFEF7CDFB1B4B0022FDF753
:1048D000D7F953EC192BFEF7C5FB41EC190B9FEDF3
:1048E00001AB2BE0000000000000F03FFE822B65D2
:1048F0004715F73F000000000000E0BF0000000087
:104900000000E03F422EE63FF2E4D5BCE7E84B3E34
:10491000FFFF8FBC0000903C112E5781A03F503FFD
:104920005843128C8F71BC3F4BE8A541B752013FF1
:104930000BBDF3DAE8708C3F0000E03F51EC1B0B3D
:1049400053EC192BFDF79CF953EC1A2BFDF798F952
:1049500082468B4651EC1B0B53EC192BFFF700FEE4
:1049600053EC1A2BFDF78CF902460B46504659467C
:1049700000F01AF953EC182BFEF774FB41EC180BFE
:1049800084ED008BA919204600F048F8040018BFF8
:10499000012C03D100F03CF8222101602046BDEC3F
:1049A000088BBDE8708C704770477047704703B440
:1049B000DDE90023C3F30A5140F2FF72914206D0B1
:1049C00001B10CE0190350EA113006D00BE01903D5
:1049D00050EA113014BF0220012002B070474FF09E
:1049E000FF3002B070476FF0010002B07047000066
:1049F00090420CD141EA030C50EA4C0C07D099428A
:104A000005D14FF4001C1CEB410F38BF89427047A1
:104A1000014800F0ECB90000B400002070B5044675
:104A20000D466068C0F30A5040F2FF71884207D11A
:104A30006068000304BF2068002817D0022070BD02
:104A400020B9204600F0D4F9012867DA012D0FDBE8
:104A500040F2FF71091A8D420AD3606800284CBFEA
:104A60009FED2F0B9FED300B84ED000B012070BDEF
:104A70004142A942616806DA6FF31E51401941EACA
:104A80000050606041E0401E63684519012205F155
:104A9000350062F31F53352801F00041636003D3F2
:104AA00061600020206070BD002215F11F0F04DA44
:104AB00022682360002020356060684213D0521EB7
:104AC00025689241C0F12003D2439D4045EAD2724D
:104AD00025686668C54006FA03F32B4323606368C4
:104AE00023FA00F0606060680843B2F1004F606034
:104AF00003D80DD12078C0070AD52068401C20605B
:104B0000206828B96068401C60604FF0FF3070BDBD
:104B10006068884204BF20680028F6D1002070BD7C
:104B2000000000000000F0FF000000000000F07F27
:104B3000F446400D40EAC120490006D200F00EF8CC
:104B4000004248BF6FF00040604700F007F84FF0A8
:104B5000004188428CBF08464042604740F0004018
:104B6000490DA1F58061491C05D4D1F11F0154BF45
:104B7000C840C01770474FF000007047010040F177
:104B80000780F446404200F003F851F000416047CE
:104B900009D0B0FA80F18840C91CC1F584610905CB
:104BA00001EBD02140057047F0B540F2FF7581EA76
:104BB000030C0CF0004C15EA11541DBF15EA1357F5
:104BC000AC42AF42E5E0BC41C1F31301C3F31303B0
:104BD000801A994143F4801304D2641E4000494175
:104BE00080185941C90241EA5051B1FBF3F603FB69
:104BF0001611A2FB0675D7EBC020A94102D2761E82
:104C000080185941C90241EA5051B1FBF3FE03FB40
:104C10001E11A2FB0E75D7EBC020A94103D2AEF145
:104C2000010E80185941890241EA9051760546EA01
:104C30008E2EB1FBF3F603FB1611A2FB0675D7EB24
:104C40008020A94102D2761E80185941C90241EA4A
:104C500050514EEA060EB1FBF3F603FB1611A2FB10
:104C60000675D7EBC020A94102D2761E80185941A3
:104C7000C90241EA5051B1FBF3F703FB1711A2FB44
:104C80000735D3EBC020A94167F100070CBF0042F4
:104C900047F0010766F3D5274FEA1E31B80814F52F
:104CA000806412DDBD0775F1004250EB0E5051EBF0
:104CB000045111F5801F5CBF41EA0C01F0BD4CF0BE
:104CC0007F6141F0E0410020F0BDBD076D0840EA82
:104CD0000E5041F48011D4F10104B4F120060ADA37
:104CE000C4F120060200E04001FA06F3E140184357
:104CF000B24015430EE0342C13DCC6F1200445EA23
:104D000040056D0820FA06F2154321FA06F0A1408D
:104D10000D43002175F1004250F1000051EB0C01F0
:104D2000F0BD00205FEA0C01F0BDCFB992185B41E5
:104D3000B3FA83F704BFB2FA82F6BF190B3FB7F19B
:104D400020062FBF02FA06F3BB40C7F1200622FA65
:104D500006F638BF3343BA401CB1E419641E33E78A
:104D60007F4231F00041B1FA81F404BFB0FA80F61D
:104D7000A4190B3CB4F120062FBF00FA06F1A140A4
:104D8000C4F1200620FA06F638BF3143A0403C1B90
:104D90001AE7AC421ABF05EA1357AF4212E050EAD5
:104DA00041061CBF52EA4306BFE750EA41073046BE
:104DB00061461CBF41EA0551F0BD52EA430C08BFF1
:104DC000C143F0BD00204FF4001616EB410F98BF11
:104DD00016EB430F08BF16EB410F24BFC14305E09C
:104DE00016EB430F0CBF61464CEA0551F0BD70470E
:104DF00030B4436803F0004201211B031B0B4360E6
:104E000004BF0368002B08D10DE00368DD0F45EAFD
:104E1000440444605B000360491E4468E302F4D527
:104E200023031B0B436043681A434260084630BCAF
:104E3000704700007047FEE7FEE7FEE7FEE77047B9
:104E40007047704710B5224C2078401C2070C0B2CB
:104E5000642803DBFCF783FB002020701D480178E9
:104E6000A078012926D16178491C6170C9B2052951
:104E700020DB00216170184B18490A881B68C3F8B1
:104E80001C22E2786AB9401CC0B21F2812DB0A88D3
:104E900020320A8000200988B1F5247F0ADB012135
:104EA00007E00A88521E0A800988B1F5807F01DC7C
:104EB0000021E170A07010BD0948FEF7EBBD012094
:104EC000FEF767BC002100E005210348FDF74FBC59
:104ED0002402002000000020BC000020B8000020B8
:104EE0000C0000201448154A016841F4700101606B
:104EF0001348016841F001010160416811404160BF
:104F0000104A0168114001600F4A016821F48021B4
:104F10000160416821F4FE014160C16A090909018B
:104F2000C162016B11400163002181604FF000609C
:104F3000064908607047000088ED00E00CC07FF86B
:104F400000100240FFFFF6FECCFC00FF08ED00E081
:104F500010B5074979441831064C7C44163404E0F6
:104F60000A68081D511888470146A142F8D110BDB2
:104F70002C0000004C0000004EF68851CEF20001DB
:104F8000086840F470000860BFF34F8FBFF36F8F65
:104F90004FF00070E1EE100A70470000C3CCFFFF35
:104FA0006C010000BC000020000000003FC5FFFFB6
:104FB000BC000000240100000000002000000000F0
:104FC00000F00BF8002801D0FFF7C2FF0020C04618
:104FD000C046FBF7D9F800F002F80120704700F056
:104FE00001B800000746384600F002F8FBE7000071
:104FF00080B5C046C046024A11001820ABBEFBE790
:10500000260002000148804701480047E54E00089D
:1050100015500008C046C046FFF7AEFFFFF7D0FFAF
:10502000FFF7FEBFFFF7FEBFFFF7FEBFFFF7FEBFB4
:10503000FFF7FEBFFFF7FEBFFFF7FEBFFFF7FEBFA4
:10504000FFF7FEBFFFF7FEBFFFF7FEBFFFF7FEBF94
:10505000FFF7FEBFFFF7FEBFFFF7FEBFFFF7FEBF84
:10506000FFF7FEBFFFF7FEBFFFF7FEBFFFF7FEBF74
:10507000FFF7FEBFFFF7FEBFFFF7FEBFFFF7FEBF64
:10508000FFF7FEBFFFF7FEBFFFF7FEBFFFF7FEBF54
:10509000FFF7FEBFFFF7FEBFFFF7FEBFFFF7FEBF44
:1050A000FFF7FEBFFFF7FEBFFFF7FEBFFFF7FEBF34
:1050B000FFF7FEBFFFF7FEBFFFF7FEBFFFF7FEBF24
:1050C000FFF7FEBFFFF7FEBFFFF7FEBFFFF7FEBF14
:1050D000FFF7FEBFFFF7FEBF000101000101000066
:1050E00000000000000000000000000000000000C0
:1050F00000000000000000000000000000000000B0
:10510000000000000000000000000000000000009F
:10511000000000000000000000000000000000008F
:105120000000000000000000000000001801000066
:10513000F0000000C800000068010000400100000D
:1051400000401C44000000000000000000000200BD
:105150000000040000000800000010000000200013
:105160000000010000000000000000000102030434
:105170000607080900127A000004004800040048ED
:10518000000400480004004800000048000000003F
:04519000000100001A
:04000005080050158A
:00000001FF
