:020000040800F2
:10000000F01D00205DA40008FDA30008FFA3000868
:1000100001A4000803A4000805A4000800000000D3
:1000200000000000000000000000000007A400081D
:1000300009A40008000000000BA400080DA400089B
:1000400079A400087DA4000881A4000885A4000804
:1000500089A400088DA4000891A4000895A40008B4
:1000600099A400089DA40008A1A40008A5A4000864
:10007000A9A40008ADA40008B1A40008B5A4000814
:10008000B9A40008BDA40008C1A40008C5A40008C4
:10009000C9A40008CDA40008D1A40008D5A4000874
:1000A000D9A40008DDA40008E1A40008E5A4000824
:1000B000E9A40008EDA4000800000000F1A4000875
:1000C000F5A40008F9A40008FDA4000801A5000893
:1000D0000000000005A5000809A500080DA50008FE
:1000E00011A4000811A50008000000000000000095
:1000F0000000000000000000000000000000000000
:1001000000000000000000000000000000000000EF
:10011000000000000000000015A5000819A5000857
:1001200000000000000000000000000000000000CF
:1001300000000000000000000000000000000000BF
:100140001DA5000821A500080000000025A5000845
:1001500029A500082DA5000831A5000835A500082F
:1001600039A500083DA500080000000000000000BF
:10017000000000000000000000000000000000007F
:100180000000000041A50008000000000000000081
:10019000000000000000000000000000000000005F
:1001A000000000000000000000000000000000004F
:1001B000000000000000000000000000000000003F
:1001C000000000000000000000000000000000002F
:1001D0000000000000000380000380000380000393
:1001E0008000038000038000038000038000038000
:1001F000000100000100000000000000000380007A
:10020000038000000000000000000000000000006B
:1002100000000000000000000000000000000000DE
:10022000000E70000E70000E70000420000420000C
:100230000420000420000000000000000000000076
:1002400000000000000000000000000000000000AE
:10025000000000000000000000000000000000009E
:100260000000000000000660000660000660000656
:1002700060000660003FF8003FF8000660000CC018
:10028000003FF8003FF8000CC0000CC0000CC0009C
:100290000CC0000CC00000000000000000000000C6
:1002A000000000000000000000000001800001804C
:1002B0000007B0000FF0001870001870001C00005C
:1002C0000F800007E00000F0001830001C30001C18
:1002D00070001FE0001BC000018000018000018051
:1002E000000180000000000000000000000000008D
:1002F0000000000000000780000FC0001CE0001894
:1003000060001860001CE0000FF80007E0001FF01C
:100310000007380006180006180007380003F00030
:1003200001E00000000000000000000000000000EC
:1003300000000000000000000000000000000000BD
:100340000000000003F00007F0000C60000C00004B
:100350000C00000600000700000F9C001DFC0018A8
:10036000F0001870000FFC0007DC00000000000027
:10037000000000000000000000000000000000007D
:100380000000000000000000000380000380000364
:1003900080000100000100000100000100000000D9
:1003A000000000000000000000000000000000004D
:1003B000000000000000000000000000000000003D
:1003C0000000000000000000000000000000001815
:1003D0000000380000700000F00000E00000E000C5
:1003E00001C00001C00001C00001C00001C0000147
:1003F000C00000E00000E000007000007000003865
:1004000000001800000000000000000000000000D4
:100410000000000000001800001C00000E00000E8C
:100420000000070000070000038000038000038035
:100430000003800003800003800007000007000025
:100440000F00000E00001C0000180000000000005B
:10045000000000000000000000000000000001801B
:10046000000180000180001DB8001FF80007E000B7
:1004700003C00003C000066000066000000000002A
:10048000000000000000000000000000000000006C
:10049000000000000000000000000000000000005C
:1004A00000000000000000000000000001800001CA
:1004B00080000180000180000180003FFC003FFCC3
:1004C00000018000018000018000018000018000A7
:1004D000000000000000000000000000000000001C
:1004E000000000000000000000000000000000000C
:1004F00000000000000000000000000000000000FC
:1005000000000000000000000000000000000000EB
:10051000000000E00000C00001C000018000018078
:1005200000030000030000000000000000000000C5
:1005300000000000000000000000000000000000BB
:1005400000000000000000000000001FF8001FF87D
:10055000000000000000000000000000000000009B
:10056000000000000000000000000000000000008B
:10057000000000000000000000000000000000007B
:10058000000000000000000000000000000000006B
:10059000000000000000000000000000000000005B
:1005A000000003C00003C00003C000000000000002
:1005B000000000000000000000000000000000003B
:1005C0000018000018000038000030000070000023
:1005D000600000600000C00000C0000180000180D9
:1005E000000300000300000600000600000E0000EB
:1005F0000C00001C000018000018000000000000A3
:10060000000000000000000000000000000003C027
:100610000007E0000C30000C30001818001818001B
:100620001818001818001818001818001818000CCE
:1006300030000C300007E00003C0000000000000A4
:1006400000000000000000000000000000000000AA
:100650000000000000000080000780001F80001DD7
:100660008000018000018000018000018000018085
:10067000000180000180000180000180001FF8005F
:100680001FF8000000000000000000000000000053
:10069000000000000000000000000000000007C093
:1006A000001FF0003830003018003018000018002B
:1006B00000300000600001C0000380000600000C54
:1006C00000001800003FF8003FF8000000000000A4
:1006D000000000000000000000000000000000001A
:1006E00000000000000003C0000FE0000C700000DC
:1006F000300000300000600003C00003E000007024
:10070000000018000018000018001838001FF00042
:100710000FC000000000000000000000000000000A
:10072000000000000000000000000000000000E0E9
:100730000001E00001E000036000066000066000C8
:100740000C60000C60001860003060003FF8003F53
:10075000F80000600003F80003F80000000000004B
:100760000000000000000000000000000000000089
:100770000000000000001FF0001FF000180000182B
:1007800000001800001BC0001FF0001C3000001803
:10079000000018000018000018003030003FF00082
:1007A0000FC000000000000000000000000000007A
:1007B000000000000000000000000000000000F841
:1007C0000003F8000700000E00000C0000180000F5
:1007D0001BC0001FF0001C3000181800181800186B
:1007E00018000C38000FF00003E0000000000000CB
:1007F00000000000000000000000000000000000F9
:100800000000000000001FF8001FF8001818001872
:100810003800003000003000007000006000006010
:100820000000E00000C00000C00001C00001800026
:100830000180000000000000000000000000000037
:10084000000000000000000000000000000007E0C1
:10085000000FF0001C38001818001818000C3000A9
:1008600007E00007E0000C30001818001818001806
:1008700018001C38000FF00007E000000000000026
:100880000000000000000000000000000000000068
:1008900000000000000007C0000FF0001C3000182E
:1008A00018001818001818000C38000FF80003D8AA
:1008B0000000180000300000700000E0001FC000C1
:1008C0001F00000000000000000000000000000009
:1008D0000000000000000000000000000000000018
:1008E0000000000000000000000003C00003C00082
:1008F00003C0000000000000000000000000000035
:10090000000003C00003C00003C00000000000009E
:1009100000000000000000000000000000000000D7
:1009200000000000000000000000000000000000C7
:10093000000000F00000F00000F0000000000000E7
:100940000000000000000000E00001C00001800085
:100950000180000300000200000000000000000011
:100960000000000000000000000000000000000087
:1009700000000000001C00003C0000F00003C0006C
:100980000F00003C0000F000003C00000F000003DE
:10099000C00000F000003C00001C0000000000004F
:1009A0000000000000000000000000000000000047
:1009B0000000000000000000000000000000000037
:1009C00000000000007FFC007FFC00000000000031
:1009D000007FFC007FFC0000000000000000000021
:1009E0000000000000000000000000000000000007
:1009F00000000000000000000000000000000000F7
:100A0000000000007000007800001E000007800059
:100A100001E000007800001E0000780001E00007FF
:100A200080001E0000780000700000000000000040
:100A300000000000000000000000000000000000B6
:100A400000000000000000000007C0000FE00018D8
:100A5000700018300018300000700000E00003C083
:100A600000038000030000000000000000070000F9
:100A7000070000000000000000000000000000006F
:100A8000000000000000000000000000000003E083
:100A90000007F0000E38000C180018780018F80055
:100AA00019D80019980019980019980018F800181A
:100AB00078001800000C00000E180007F80003E092
:100AC0000000000000000000000000000000000026
:100AD0000000000000000000001F80001FC0000197
:100AE000C0000360000360000630000630000C30D8
:100AF000000FF8001FF800180C00300C00FC7F00FD
:100B0000FC7F00000000000000000000000000006A
:100B100000000000000000000000000000000000D5
:100B2000007FE0007FF00018380018180018180047
:100B30001838001FF0001FF800181C00180C0018CF
:100B40000C00180C007FF8007FF00000000000008F
:100B50000000000000000000000000000000000095
:100B600000000000000000000003EC000FFC001C6F
:100B70001C00180C00300C00300000300000300069
:100B800000300000300000180C001C1C000FF800A2
:100B900003F0000000000000000000000000000062
:100BA0000000000000000000000000000000000045
:100BB000007FC0007FF000183800181800180C00E3
:100BC000180C00180C00180C00180C00180C001859
:100BD00018001838007FF0007FE0000000000000DF
:100BE0000000000000000000000000000000000005
:100BF0000000000000000000007FF8007FF80018EF
:100C000018001818001998001980001F80001F8014
:100C1000001980001998001818001818007FF800B3
:100C20007FF800000000000000000000000000004D
:100C300000000000000000000000000000000000B4
:100C4000003FFC003FFC000C0C000C0C000CCC0026
:100C50000CC0000FC0000FC0000CC0000CC0000C86
:100C600000000C00003FC0003FC00000000000007A
:100C70000000000000000000000000000000000074
:100C800000000000000000000003EC000FFC001C4E
:100C90001C00180C00300C0030000030000030FE4A
:100CA0000030FE00300C00380C001C1C000FFC0053
:100CB00003F0000000000000000000000000000041
:100CC0000000000000000000000000000000000024
:100CD000007E7E007E7E001818001818001818008C
:100CE0001818001FF8001FF800181800181800182E
:100CF00018001818007E7E007E7E000000000000B4
:100D000000000000000000000000000000000000E3
:100D10000000000000000000001FF8001FF80001A4
:100D200080000180000180000180000180000180BE
:100D3000000180000180000180000180001FF80098
:100D40001FF800000000000000000000000000008C
:100D50000000000000000000000000000000000093
:100D60000007FE0007FE00003000003000003000E9
:100D700000300000300030300030300030300030C3
:100D800030003060003FE0000F80000000000000F5
:100D90000000000000000000000000000000000053
:100DA0000000000000000000007F3E007F3E0018B1
:100DB000300018600018C0001980001B80001FC0A0
:100DC000001CE0001870001830001838007F1F0069
:100DD0007F1F000000000000000000000000000075
:100DE0000000000000000000000000000000000003
:100DF000007F80007F80000C00000C00000C0000D1
:100E00000C00000C00000C00000C0C000C0C000C82
:100E10000C000C0C007FFC007FFC000000000000B8
:100E200000000000000000000000000000000000C2
:100E3000000000000000000000F00F00F81F003864
:100E40001C003C3C003C3C00366C00366C0033CC53
:100E50000033CC00318C00300C00300C00FE7F00E1
:100E6000FE7F000000000000000000000000000005
:100E70000000000000000000000000000000000072
:100E80000078FE0078FE001C18001E18001F1800D5
:100E90001B18001B980019D80018D80018F8001863
:100EA00078001838007F18007F180000000000004C
:100EB0000000000000000000000000000000000032
:100EC00000000000000000000003C0000FF0001C44
:100ED0003800181800381C00300C00300C00300CA2
:100EE00000300C00381C001818001C38000FF000EF
:100EF00003C000000000000000000000000000002F
:100F000000000000000000000000000000000000E1
:100F1000003FF0003FF8000C1C000C0C000C0C0013
:100F20000C0C000C18000FF8000FE0000C00000C77
:100F300000000C00003FC0003FC0000000000000A7
:100F400000000000000000000000000000000000A1
:100F500000000000000000000003C0000FF0001CB3
:100F60003800181800381C00300C00300C00300C11
:100F700000300C00381C001818001C38000FF0005E
:100F800007C00007CC000FFC000C38000000000078
:100F90000000000000000000000000000000000051
:100FA000007FE0007FF000183800181800181800C3
:100FB0001838001FF0001FC00018E000187000185B
:100FC00030001838007F1E007F0E00000000000077
:100FD0000000000000000000000000000000000011
:100FE00000000000000000000007D8000FF8001CFF
:100FF00038001818001818001E00000FC00003F079
:10100000000078001818001818001C38001FF000A5
:101010001BE00000000000000000000000000000D5
:1010200000000000000000000000000000000000C0
:10103000003FFC003FFC00318C00318C00318C0003
:10104000318C0001800001800001800001800001DE
:1010500080000180000FF0000FF000000000000091
:101060000000000000000000000000000000000080
:101070000000000000000000007E7E007E7E001860
:101080001800181800181800181800181800181858
:10109000001818001818001818000C30000FF00085
:1010A00003C000000000000000000000000000007D
:1010B0000000000000000000000000000000000030
:1010C000007F7F007F7F00180C000C18000C1800B8
:1010D0000C180006300006300003600003600003B7
:1010E000600001C00001C00000800000000000009E
:1010F00000000000000000000000000000000000F0
:10110000000000000000000000FE3F80FE3F803035
:10111000060030060030860019CC0019CC001B6C8C
:10112000001B6C001E7C000E38000E38000C1800EE
:101130000C1800000000000000000000000000008B
:10114000000000000000000000000000000000009F
:10115000007E7E007E7E001818000C3000066000C5
:1011600003C00001800001800003C0000660000C85
:1011700030001818007E7E007E7E00000000000017
:10118000000000000000000000000000000000005F
:101190000000000000000000007C7E007C7E001843
:1011A00018000C300006600006600003C0000180DB
:1011B000000180000180000180000180000FF0002C
:1011C0000FF0000000000000000000000000000020
:1011D000000000000000000000000000000000000F
:1011E000001FF8001FF800181800183000186000E1
:1011F00018C0000180000300000618000C18001839
:1012000018003018003FF8003FF800000000000010
:1012100000000000000000000000000000000000CE
:1012200000000000000001F00001F000018000015A
:1012300080000180000180000180000180000180A9
:101240000001800001800001800001800001800019
:1012500001800001800001F00001F00000000000AA
:1012600000000000000000001800001800001C0032
:10127000000C00000E000006000006000003000045
:1012800003000001800001800000C00000C00000D9
:10129000600000600000700000300000380000189E
:1012A0000000180000000000000000000000000026
:1012B0000000000000000F80000F8000018000018E
:1012C0008000018000018000018000018000018019
:1012D0000001800001800001800001800001800089
:1012E0000180000180000F80000F800000000000DE
:1012F000000000000000000000000000800001C0AD
:101300000003E0000770000630000C1800180C0005
:1013100010040000000000000000000000000000B9
:1013200000000000000000000000000000000000BD
:1013300000000000000000000000000000000000AD
:10134000000000000000000000000000000000009D
:10135000000000000000000000000000000000008D
:10136000000000000000000000000000000000007D
:10137000000000000000000000000000000000006D
:101380000000FFFF00FFFF000000000300000380DB
:101390000000E0000060000000000000000000000D
:1013A000000000000000000000000000000000003D
:1013B000000000000000000000000000000000002D
:1013C000000000000000000000000000000000001D
:1013D000000000000000000000000000000000000D
:1013E00000000FC0001FE00000300000300007F0D8
:1013F000001FF0003830003030003070001FFC005B
:101400000FBC000000000000000000000000000011
:101410000000000000000000000000000000780054
:10142000007800001800001800001BE0001FF80002
:101430001C1800180C00180C00180C00180C0018D0
:101440000C001C18007FF8007BE00000000000008A
:10145000000000000000000000000000000000008C
:10146000000000000000000000000000000000007C
:10147000000003EC000FFC001C1C00380C00300CBA
:1014800000300000300000380C001C1C000FF80079
:1014900003F0000000000000000000000000000059
:1014A00000000000000000000000000000000078C4
:1014B0000000780000180000180007D8001FF8008E
:1014C000183800301800301800301800301800307C
:1014D00018001838001FFE0007DE000000000000A2
:1014E00000000000000000000000000000000000FC
:1014F00000000000000000000000000000000000EC
:10150000000007E0001FF800181800300C003FFC36
:10151000003FFC00300000300000180C001FFC00F1
:1015200007F00000000000000000000000000000C4
:10153000000000000000000000000000000001FCAE
:101540000003FC000600000600003FF8003FF80022
:101550000600000600000600000600000600000667
:1015600000000600003FF0003FF000000000000017
:10157000000000000000000000000000000000006B
:10158000000000000000000000000000000000005B
:10159000000007DE001FFE00183800301800301869
:1015A000003018003018003018001838001FF800FC
:1015B00007D8000018000018000038000FF0000FD6
:1015C000C0000000000000000000000000007800E3
:1015D000007800001800001800001BE0001FF00059
:1015E0001C380018180018180018180018180018CF
:1015F00018001818007E7E007E7E000000000000AB
:1016000000000000000000000000000000000000DA
:1016100000000000000001800001800000000000C8
:1016200000001F80001F80000180000180000180F9
:10163000000180000180000180000180003FFC006B
:101640003FFC00000000000000000000000000005F
:10165000000000000000000000000000000000C0CA
:101660000000C0000000000000001FF0001FF0009C
:10167000003000003000003000003000003000007A
:10168000300000300000300000300000300000303A
:10169000000070001FE0001F80000000000000003C
:1016A0000000000000003C00003C00000C00000CAA
:1016B00000000CF8000CF8000CC0000D80000F803A
:1016C000000F00000F80000DC0000CE0003C7C000B
:1016D0003C7C000000000000000000000000000052
:1016E00000000000000000000000000000001F805B
:1016F000001F800001800001800001800001800047
:101700000180000180000180000180000180000153
:1017100080000180003FFC003FFC00000000000052
:1017200000000000000000000000000000000000B9
:1017300000000000000000000000000000000000A9
:101740000000F77800FFFC0039CC00318C00318CB0
:1017500000318C00318C00318C00318C00FDEF00A9
:10176000FDEF00000000000000000000000000008D
:101770000000000000000000000000000000000069
:10178000000000000000000000007BE0007FF0008F
:101790001C3800181800181800181800181800181D
:1017A00018001818007E7E007E7E000000000000F9
:1017B0000000000000000000000000000000000029
:1017C0000000000000000000000000000000000019
:1017D000000003C0000FF0001C3800381C00300C63
:1017E00000300C00300C00381C001C38000FF000DA
:1017F00003C0000000000000000000000000000026
:1018000000000000000000000000000000000000D8
:10181000000000000000000000007BE0007FF800F6
:101820001C1800180C00180C00180C00180C0018DC
:101830000C001C18001FF8001BE000180000180026
:10184000001800007F00007F000000000000000082
:101850000000000000000000000000000000000088
:10186000000007DE001FFE00183800301800301896
:10187000003018003018003018001838001FF80029
:1018800007D80000180000180000180000FE000033
:10189000FE0000000000000000000000000000004A
:1018A000000000000000000000003E78003EFC0048
:1018B00007CC000700000600000600000600000636
:1018C00000000600003FF0003FF0000000000000B4
:1018D0000000000000000000000000000000000008
:1018E00000000000000000000000000000000000F8
:1018F000000007F8000FF8001818001818001F80E3
:10190000000FF00000F8001818001838001FF00051
:101910001FE00000000000000000000000000000C8
:1019200000000000000000000000000000000C00AB
:10193000000C00000C00000C00003FF0003FF00025
:101940000C00000C00000C00000C00000C00000C4F
:1019500000000C1C0007FC0003F000000000000069
:101960000000000000000000000000000000000077
:101970000000000000000000000000000000000067
:1019800000007878007878001818001818001818E7
:10199000001818001818001818001838000FFE005A
:1019A00007DE000000000000000000000000000052
:1019B0000000000000000000000000000000000027
:1019C000000000000000000000007C3E007C3E00A3
:1019D0001818001818000C30000C300006600006C3
:1019E000600007E00003C00003C00000000000002A
:1019F00000000000000000000000000000000000E7
:101A000000000000000000000000000000000000D6
:101A10000000783C00783C0031180033980033987F
:101A2000001AB0001EF0001EF0001C60000C6000E8
:101A30000C6000000000000000000000000000003A
:101A40000000000000000000000000000000000096
:101A5000000000000000000000003E7C003E7C0012
:101A60000C300006600003C00001800003C00006C7
:101A700060000C30003E7C003E7C00000000000056
:101A80000000000000000000000000000000000056
:101A90000000000000000000000000000000000046
:101AA00000007E1F007E1F00180C000C18000C1890
:101AB0000006300006300003600003E00001C000B3
:101AC00000C0000180000180000300003FC0003F13
:101AD000C000000000000000000000000000000046
:101AE000000000000000000000001FF8001FF800C8
:101AF00018300018600000C00001800003000006DC
:101B000018000C18001FF8001FF80000000000006B
:101B100000000000000000000000000000000000C5
:101B200000000000000000E00001E0000180000172
:101B3000800001800001800001800001800003809E
:101B40000007000003800001800001800001800088
:101B500001800001800001E00000E00000000000C2
:101B600000000000000000000000000000000180F4
:101B700000018000018000018000018000018000E0
:101B800001800001800001800001800001800001CF
:101B90008000018000018000018000018000018040
:101BA00000018000000000000000000000000000B4
:101BB0000000000000000700000780000180000115
:101BC000800001800001800001800001800001C0D0
:101BD0000000E00001C000018000018000018000E1
:101BE0000180000180000780000700000000000065
:101BF00000000000000000000000000000000000E5
:101C000000000000000000000000000000000000D4
:101C10000E00001F18003BB80031F00000E000008B
:101C200000000000000000000000000000000000B4
:101C300000000000000000000000000000000000A4
:101C40000000000000000000000000000010101064
:101C50001010000010000000006C48480000000058
:101C600000000000001414287C287C28505000003C
:101C700000103840403848701010000000205020FC
:101C80000C700814080000000000001820205448C0
:101C900034000000001010101000000000000000D0
:101CA0000008081010101010100808000020201064
:101CB000101010101020200000107C1028280000A8
:101CC000000000000000101010FE101010000000B6
:101CD000000000000000001810302000000000008C
:101CE000007C000000000000000000000000003048
:101CF00030000000000404080810102020400000FC
:101D0000003844444444444438000000003010107B
:101D1000101010107C00000000384404081020440B
:101D20007C0000000038440418040444380000001B
:101D3000000C141424447E040E000000003C2020FB
:101D40003804044438000000001C20407844444417
:101D500038000000007C440408080810100000004F
:101D600000384444384444443800000000384444B7
:101D7000443C0408700000000000003030000030D7
:101D8000300000000000001818000018302000008B
:101D900000000C10608060100C00000000000000CB
:101DA0007C007C00000000000000C0201804182007
:101DB000C0000000000018240408100030000000DB
:101DC0003844444C54544C404438000000301028EF
:101DD00028287C44EE00000000F844447844444441
:101DE000F8000000003C44404040404438000000FF
:101DF00000F0484444444448F000000000FC4450D3
:101E000070504044FC000000007E2228382820202A
:101E100070000000003C4440404E44443800000044
:101E200000EE44447C444444EE000000007C10106A
:101E3000101010107C000000003C080808484848BA
:101E40003000000000EE444850704844E6000000B6
:101E500000702020202024247C00000000EE6C6C08
:101E600054544444EE00000000EE64645454544C56
:101E7000EC0000000038444444444444380000006E
:101E800000782424243820207000000000384444C6
:101E900044444444381C000000F844444478484416
:101EA000E200000000344C40380404645800000094
:101EB00000FE9210101010103800000000EE444494
:101EC000444444443800000000EE444428282810CC
:101ED0001000000000EE4444545454542800000004
:101EE00000C6442810102844C600000000EE442814
:101EF0002810101038000000007C44081010204406
:101F00007C000000003820202020202020203800E5
:101F100000402020201010080808000000380808A1
:101F200008080808080838000010102844000000BD
:101F3000000000000000000000000000000000FEA3
:101F40000010080000000000000000000000003841
:101F5000443C44443E00000000C0405864444444B3
:101F6000F80000000000003C4440404438000000FD
:101F7000000C04344C4444443E000000000000388F
:101F8000447C40403C000000001C207C202020209D
:101F90007C000000000000364C4444443C043800FF
:101FA00000C0405864444444EE000000001000703B
:101FB000101010107C0000000010007808080808BD
:101FC0000808700000C0405C48705048DC00000009
:101FD00000301010101010107C000000000000E80D
:101FE00054545454FE000000000000D8644444449B
:101FF000EE00000000000038444444443800000073
:10200000000000D8644444447840E00000000036FA
:102010004C4444443C040E000000006C302020205E
:102020007C0000000000003C4438044478000000BC
:102030000000207C202020221C000000000000CC9A
:102040004444444C36000000000000EE444428287C
:1020500010000000000000EE44545454280000001A
:10206000000000CC48303048CC000000000000EEFA
:1020700044242818101078000000007C48102044E8
:102080007C00000000081010101020101010080034
:102090000010101010101010101000000020101070
:1020A000101008101010200000000000002458003C
:1020B00000000000000000000000000020202020A0
:1020C0000020000050500000000000002850F85090
:1020D000F850A000203060301060200020201860F0
:1020E00010100000003820605078000020202000F0
:1020F0000000000010202020202010004020202080
:10210000202040002070205000000000002020F817
:1021100020200000000000001020200000000070BF
:10212000000000000000000000200000102020201F
:10213000404080002050505050200000602020205F
:1021400020F8000020502020407000002050102077
:10215000106000001030507810380000704060109F
:10216000502000003040605050600000705010203F
:1021700020200000205020505020000030505030CF
:10218000106000000000200000200000000010008F
:1021900010200000001020C020100000007000700F
:1021A00000000000004020182040000020501020B7
:1021B00000200000304848584840380060205070E7
:1021C00088D80000F048704848F000007050404047
:1021D00040300000F048484848F00000F8486040AF
:1021E00048F80000F848604040E000007040405867
:1021F00050300000E848784848E80000702020206F
:10220000207000003810105050200000D85060702E
:1022100050D80000E040404048F80000D8D8D8A886
:1022200088D80000D868685858E800003048484806
:1022300048300000F048487040E00000304848480E
:1022400048301800F048487048E8000070502010EE
:1022500050700000F8A8202020700000D84848489E
:1022600048300000D888485050300000D888A8A8CE
:10227000A8500000D850202050D80000D888502006
:10228000207000007848102048780000302020207E
:10229000202030008040402020201000602020209E
:1022A00020206000202050000000000000000000FE
:1022B000000000F8201000000000000000003010B6
:1022C00070780000C040704848F000000000704086
:1022D000407000001808384848380000000070704E
:1022E00040300000102070202070000000003848AE
:1022F00048380830C040704848E80000200060209E
:10230000207000002000701010101070C040587035
:1023100050D8000060202020207000000000D0A8CD
:10232000A8A800000000F04848C80000000030489D
:10233000483000000000F048487040E00000384895
:102340004838081800007820207000000000302075
:10235000106000000040F040483000000000D84805
:10236000483800000000C848303000000000D8A8FD
:10237000A850000000004830304800000000D8504D
:102380005020206000007850287800001020206045
:10239000202010002020202020202000402020305D
:1023A000202040000000002850000000F0B47D4CC8
:1023B0000022002325462E6876B1D0F80072BE4276
:1023C00002BF6E68D0F80872BE4202BF2E89B0F814
:1023D0000672BE4201D13DE00122EE685B1C0EB9DF
:1023E00001220DE0D0F80072BE4202BF2E69D0F883
:1023F0000872BE4202BFAE8AB0F80672BE4229D051
:10240000AE695B1C0EB901220DE0D0F80072BE422D
:1024100002BFEE69D0F80872BE4202BF2E8CB0F83F
:102420000672BE4216D06E6A5B1C0EB901220DE028
:10243000D0F80072BE4202BFAE6AD0F80872BE4247
:1024400002BFAE8DB0F80672BE4203D05B1C3035C1
:102450000C2BB0D30C2B05D182B902290ED0F0BCC5
:102460001220704739B903EB430004EB8000408928
:10247000B0F5807F02D1F0BC10207047F0BC002086
:1024800070470000F0B4474BB0F80662D0F808720D
:10249000D0F8004200221D46D5F800C0A44501BF77
:1024A000D5F804C0BC45B5F808C0B44527D0D5F868
:1024B0000CC0521CA44501BFD5F810C0BC45B5F8EE
:1024C00014C0B4451BD0D5F818C0521CA44501BF98
:1024D000D5F81CC0BC45B5F820C0B4450FD0D5F820
:1024E00024C0521CA44501BFD5F828C0BC45B5F88E
:1024F0002CC0B44503D0521C30350C2ACCD30C2A46
:1025000023D100224FEA030555F80C6B76B155F83C
:102510000C6B521C56B155F80C6B521C36B155F869
:102520000C6B521C16B1521C0C2AEDD30C2A13D082
:1025300002EB420503EB85052C60D0F808426C6085
:10254000B0F8060228810020688102EB420003EB0C
:102550008000438931B113B1F0BC002070474FF4C3
:10256000807100E0591C4181501CF0BC7047401E36
:102570000C2815D200EB400188000A494218538903
:10258000B3F5807F18BF002B02D10023538103E0F5
:102590005B1E53819BB20BB9002242500020704752
:1025A0000220704758140020F0B5054681B095F818
:1025B0000402002440B3D5F82C6295F801020123EF
:1025C0003246294602F019F818B10124204601B01C
:1025D000F0BD85F80402D5F82002D5F81812301A9B
:1025E000884211D295F8030202280DD3B0F10107F9
:1025F000D5F81802861995F80102012332462946BA
:1026000001F0FBFF7F1EF3D1204601B0F0BD70B595
:1026100004460D46D4F82C020026854211D02046EF
:10262000FFF7C2FF06000CD194F8010201232A46ED
:10263000214601F0D5FF10B14FF0FF350126C4F857
:102640002C52304670BD30B581B00446FFF7ACFF68
:10265000050062D194F80002032804BF94F8050233
:10266000012852D14FF40071204601F0E3FF5520BC
:1026700084F8FE010123AA2084F8FF01214652209C
:10268000207060706120A0704120E070722084F89A
:10269000E40184F8E501412084F8E601612084F832
:1026A000E701D4F8100284F8E801D4F8100200041D
:1026B000000E84F8E901D4F81002000C84F8EA0155
:1026C000D4F81002000E84F8EB01D4F80C0284F860
:1026D000EC01D4F80C020004000E84F8ED01D4F8EB
:1026E0000C02000C84F8EE01D4F80C02000E84F801
:1026F000EF01D4F81C02421CC4F82C2294F8010209
:1027000001F07BFF002084F80502002294F801020A
:10271000002101F07FFF00B10125284601B030BD46
:102720002DE9F0410D46022D804662D3D8F81402FF
:1027300085425ED298F8000201284FF0FF3604D09F
:1027400057D303283AD026D353E0D8F8200205EB1C
:10275000550400EB54214046FFF759FF002849D1AA
:10276000E005C00D641C10F80870D8F8200200EBDA
:1027700054214046FFF74BFFE0BBE005C00D10F8C9
:10278000080047EA0027E8075ABF3E05360D3E0914
:102790003046BDE8F081D8F8200200EB1521404614
:1027A000FFF735FF30BB6800C00508EBD05041781B
:1027B000007840EA01263046BDE8F081D8F82002D2
:1027C00000EBD5114046FFF722FF98B9A800C005DD
:1027D00008EBD0508278C178120442EA0161427855
:1027E000007841EA02210843060136093046BDE877
:1027F000F08101263046BDE8F081F0B50E46022E8C
:1028000081B0044615467CD3D4F81402864278D2AF
:1028100094F80002012804D073D3032853D03DD389
:102820006FE0D4F8200206EB560700EB5721204654
:10283000FFF7EDFE002865D1F80514EBD0517F1CA1
:1028400016F001061DBF087800F00F0040EA0510E1
:1028500028460870012084F80402D4F8200200EB16
:1028600057212046FFF7D3FE00284BD1F90514EB82
:10287000D15136B12A090A70012184F8041201B03D
:10288000F0BD0A782B0A02F0F00203F00F031A439E
:102890000A70012184F8041201B0F0BDD4F82002BE
:1028A00000EB16212046FFF7B2FE58BB7100C905A8
:1028B00014EBD15101B00D702D042A0E4A70012184
:1028C00084F80412F0BDD4F8200200EBD6112046A3
:1028D000FFF79DFEB0B9B100C90514EBD15101B0AD
:1028E000CA78120602F0704215432A04120E4A708A
:1028F0000D702A0C8A702A0ECA70012184F8041205
:10290000F0BD022001B0F0BD2DE9F0410F46022FCD
:1029100080460DD3D8F81402874209D200263946E2
:102920004046FFF7FDFE050000F09280012D03D127
:1029300002263046BDE8F08115F1010F03D10126D2
:102940003046BDE8F081022F6CD3D8F814028742DC
:1029500068D298F80002012833D063D3032801D04D
:102960001BD35FE0D8F8200200EBD7114046FFF7F9
:102970004EFE060057D1B800C00508EBD05000222B
:10298000C1780270090601F07041090E4270827030
:10299000C170012088F8040245E0D8F8200200EB5D
:1029A00017214046FFF733FE06003CD17800C005F2
:1029B00008EBD050002101704170012088F804021A
:1029C00031E0D8F8200207EB570400EB54214046D1
:1029D000FFF71DFE060026D1E005641C08EBD05071
:1029E00017F001071ABF017801F00F0100210170F3
:1029F000012088F80402D8F8200200EB5421404658
:102A0000FFF705FE06000ED1E00508EBD050002FC1
:102A100012BF0021017801F0F0010170012088F857
:102A2000040200E002269EB9D8F8100210F1010F4E
:102A300008D0401CC8F8100298F8050240F00100C8
:102A400088F805022F46D8F814028742FFF467AFD2
:102A50003046BDE8F08100002DE9F0410D0004464C
:102A600008D1D4F80C721FB1D4F81402874212D3E3
:102A7000012710E0FFF754FE022838BF0120C0F004
:102A8000B58010F1010F00F0B180D4F81412884223
:102A9000C0F0AC802F463E46D4F81402761C864225
:102AA00003D30226022FC0F0988031462046FFF75C
:102AB00037FE002840F08980022E6CD3D4F814022F
:102AC000864268D294F80002012834D063D30328E8
:102AD00001D01CD35FE0D4F8200200EBD6112046D1
:102AE000FFF795FD002857D1B100C90514EBD1516E
:102AF0006FF07043CA7843EA0262FF23120E0B7034
:102B00004B708B70CA70012184F8041244E0D4F831
:102B1000200200EB16212046FFF779FD00283BD16B
:102B20007100C90514EBD151FF230B704B700121CB
:102B300084F8041230E0D4F8200206EB560700EBCC
:102B400057212046FFF763FD30BBF80514EBD05149
:102B50007F1C16F001081ABF087840F0F000FF2033
:102B60000870012084F80402D4F8200200EB5721F9
:102B70002046FFF74CFD78B9F90514EBD151B8F1B7
:102B8000000F12BFFF220A7842F00F020A700121E3
:102B900084F8041200E0022028B92DB132462946FB
:102BA0002046FFF72AFED8B9D4F81002C4F80C6208
:102BB00010F1010F19D0401EC4F8100294F805025C
:102BC00040F0010084F805020FE010F1010F18BF7A
:102BD00001280BD0BE427FF45FAF0020BDE8F0813A
:102BE00001280CBF4FF0FF3601263046BDE8F081CA
:102BF000D0F82422D0F8000290F80202490A121DEF
:102C0000B1FBF0F013E0401A52F8081F89B1884276
:102C100013D3401A52F8081F59B188420DD3401AF5
:102C200052F8081F29B1884207D3401A08321168A8
:102C300009B9002070478842E5D2516808187047EA
:102C400070B504460D46D4F80802A4F806520128CF
:102C500040D0D4F80012D1F8142290423AD228B9C8
:102C600091F80022032A02D1D1F8240230B9B1F838
:102C7000082295422ED2D1F8241228E091F80212AF
:102C80000E0100E0AD1BD4F80022B54212D301467C
:102C90001046FFF745FD10F1010F01D1012070BD75
:102CA000022817D3D4F80012D1F814128842E9D3BD
:102CB000022070BDD2F81432811E9B1E99422FBF94
:102CC000002192F80232D2F8282203FB0121C4F835
:102CD0000C0209B9022070BD01EB1510C4F81002F6
:102CE00005F00F01D4F8000200EB4110C4F8140203
:102CF000002070BD2DE9F04782460F46BAF8060263
:102D0000451C28041CBFDAF81002002829D015F051
:102D10000F0F40F0B280401CCAF81002DAF80C1213
:102D2000DAF8000239B9B0F808028542C0F0A5808F
:102D30000420BDE8F08790F80222521E12EA151F07
:102D400040F09B80FFF7ECFC0646022E17D316F1ED
:102D5000010F77D0DAF80002D0F814128E4279D33E
:102D600017B90420BDE8F087DAF80C12FFF774FEFB
:102D7000060008BF072000F08B80012E02D1022040
:102D8000BDE8F08716F1010F5CD0DAF80002FFF71A
:102D90000BFC002856D1DAF800024FF4007101F064
:102DA00049FCDAF8000200F50573B21E1F68BF1E69
:102DB000BA422FBF002190F802125B6901FB023179
:102DC000C0F82C12002723E088F80402D8F820026B
:102DD000D8F81812A9EB0000884211D298F8030223
:102DE00002280DD3B0F10104D8F81802814498F8F4
:102DF000010201234A46414601F0FFFB641EF3D164
:102E0000DAF80002D0F82C12491CC0F82C127F1CF2
:102E1000DAF8000290F802128F4216D2012180F8EF
:102E20000412DAF8008298F804020028E8D0D8F8F2
:102E30002C9298F8010201234A46414601F0DDFB3D
:102E40000028C1D00120BDE8F087D0F82C12C91BA2
:102E5000C0F82C12CAF80C62B11EDAF80002D0F8E1
:102E60001422921E91422FBF002090F80222D0F827
:102E7000280202FB0100CAF8100205F00F01DAF87F
:102E80000002AAF8065200EB4110CAF81402002012
:102E9000BDE8F08790F80002CA7E8B7E032843EAE3
:102EA000022205D1487D097D41EA002042EA004224
:102EB0001046704781760A04090C0175120E090A42
:102EC000C276417570472DE9F04104460E4604254F
:102ED00048E0B04200F07F80B4F80602471C380496
:102EE0001CBFD4F8100200280ED017F00F0831D103
:102EF000401CC4F81002D4F80C12D4F8000229B90E
:102F0000B0F80802874225D3042561E090F8022238
:102F1000521E12EA171F1DD1FFF702FC022854D3DC
:102F200010F1010F4FD0D4F80012D1F814229042C2
:102F3000EAD2C4F80C02801ED1F81422921E9042EC
:102F40002FBF002091F80222D1F8281202FB0010B6
:102F5000C4F81002A4F80672D4F8000200EB48107E
:102F6000C4F81402D4F810728FB3D4F80082D8F8E1
:102F70002C020025874211D04046FFF715FB0500C3
:102F80000CD198F8010201233A46414601F028FB92
:102F900010B14FF0FF370125C8F82C72BDB9D4F835
:102FA000140201780029AFD0C07A00F03F00E52973
:102FB0001CBF2E290F288FD020F0200008280CBF1E
:102FC0000120002085E7012502E0022500E015B17F
:102FD0000020C4F810022846BDE8F0812DE9F04138
:102FE00080460021FFF72CFE060040F0C18000253E
:102FF00025E06D1C012D00F0BD80B8F80602461CCE
:1030000030041CBFD8F81002002858D016F00F0F5B
:103010000BD1401CC8F81002D8F80C12D8F80002E6
:1030200099BBB0F80802864249D2D8F80002A8F845
:10303000066206F00F0100EB4110C8F814020026EA
:10304000D8F80042D8F81072D4F82C02874211D078
:103050002046FFF7A9FA06000CD194F801020123DB
:103060003A46214601F0BCFA10B14FF0FF37012675
:10307000C4F82C72002E7BD1D8F814020078E52811
:1030800018BF0028B5D00025B7E790F80222521EDD
:1030900012EA161FC9D1FFF743FB0746022F65D37B
:1030A00017F1010F60D0D8F80002D0F814128F4247
:1030B00046D3D8F80C12FFF7CFFC070001D1072642
:1030C00058E0012F52D017F1010F4DD0D8F800026F
:1030D000FFF76AFA002847D1D8F800024FF40071D0
:1030E00001F0A8FAD8F8000200F50573BA1E1968B5
:1030F000891E8A422FBF002190F802125B6901FBF2
:103100000231C0F82C1200240FE0012180F80412D3
:10311000D8F80002FFF748FA30BBD8F80002D0F820
:103120002C12491CC0F82C12641CD8F8000290F82C
:1031300002128C42E9D3D0F82C12091BC0F82C12D1
:10314000C8F80C72B91ED8F80002D0F81422921EEA
:1031500091422FBF002090F80222D0F8280202FBF3
:103160000100C8F8100260E7012603E0022601E032
:10317000042EA4D02EBBD8F81012D8F80002FFF706
:1031800046FA06001DD1D8F81402202101F052FAA7
:10319000D8F81812D8F8140211F8012B00F8012BF6
:1031A0005FF0050211F8013B00F8013B521E11F8D7
:1031B000013B00F8013BF5D1D8F80012012081F85D
:1031C00004023046BDE8F08130B4D0F8103201F18D
:1031D00009024BB3D0F8140200231C5C5B1C202CAA
:1031E00009D0052C08BFE524092B04BF2E2502F8C1
:1031F000015B02F8014B0B2BEFD3C37A0B72847F78
:10320000C37F240444EA0363447F43EA0423047F26
:1032100023430B60047E437E44EA03238B80C37DFB
:10322000807D40EA0320C8800020107030BC7047C9
:103230002DE9F0478846D8F8005000E06D1C297849
:103240002F2918BF5C29F9D0D0F8189220220B2121
:10325000484601F003FA00200022034608210FF23D
:10326000041A0FF2101C05E008295CD19206082010
:103270000B21120E13F805E05B1CBEF1210F05DBDC
:10328000BEF12F0F18BFBEF15C0F0AD15B19BEF162
:10329000210FC8F80030B4BF4FF0040E4FF0000EFD
:1032A00040E0BEF12E0FDFD088423CD2BEF1800F4D
:1032B00004DBE64442F003021EF880EC564600E0D0
:1032C000761C377897B177451CBF16F8017F002F21
:1032D0000CD077451CBF16F8017F002F06D077452C
:1032E0001EBF16F8017F002F7745E9D13478D4B995
:1032F000AEF141041A2C06D200F809E042F00202B5
:10330000D2B2401CB6E7AEF161041A2C06D242F0EC
:103310000102AEF12004D2B25FFA84FE00F809E0A7
:10332000401CA7E710B90620BDE8F08799F8000017
:10333000E52804BF052089F80000082908BF92008D
:1033400002F00300012808BF4EF0100E02F00C003E
:10335000042808BF4EF0080E89F80BE00020BDE8F5
:10336000F0870000222A2B2C3A3B3C3D3E3F5B5D20
:103370007C7F0000808182838485868788898A8B10
:103380008C8D8E8F90919293949596979899AD9BF2
:103390008C9DAE9FA021A2A3A4A5A6A7A8A9AAAB75
:1033A000ACADAEAFB0B1B2B3B4B5B6B7B8B9BABBE5
:1033B000BCBDBEBFC0C1C2C3C4C5C6C7C8C9CACBD5
:1033C000CCCDCECFD0D1D2D3D4D5D6D7D8D9DADBC5
:1033D000DCDDDEDFC0C1C2C3C4C5C6C7C8C9CACB35
:1033E000CCCDCECFD0D1D2D3D4D5D6F7D8D9DADB85
:1033F000DCDDDE9FF2B5044608782F2812BF5C287A
:10340000481C00900020C4F808020098007820288A
:103410001CD200212046FFF713FC05460020C4F80B
:10342000140201B02846F0BDC87E8A7E42EA002020
:10343000D4F8002292F80022032A05D14A7D097DA2
:1034400041EA022140EA0140C4F8080200A92046EE
:10345000FFF7EEFE050040F0E680D4F808020025F4
:103460000128A4F8065243D0D4F80012D1F814224F
:1034700090423DD228B991F80022032A02D1D1F816
:10348000240228B9B1F8082292B3D1F8241227E017
:1034900091F802120E0108E0022829D3D4F8001294
:1034A000D1F81412884223D2AD1BB54209D301468C
:1034B000D4F80002FFF734F910F1010FECD1012527
:1034C0007BE0D4F80012D1F81432821E9B1E9A427F
:1034D0002FBF002191F80232D1F8281203FB02110C
:1034E000C4F80C0221B101EB1510C4F8100205E07C
:1034F000022562E0C4F81002A4F80652D4F80002D3
:10350000D4F80072D4F8106205F00F0100EB4110FE
:10351000C4F814020025D7F82C02864211D0384690
:10352000FFF742F805000CD197F80102012332465B
:10353000394601F055F810B14FF0FF360125C7F8B4
:103540002C62002D39D1D4F814020178A1B3C17ACC
:10355000090719D4D4F8181210F8013B11F8016BBF
:103560000A229B1B0FD11646721E66B110F8013B52
:1035700011F8016B9B1B06D110F8013B11F8016B90
:10358000521E9B1BEFD0C3B1B4F80602451C2804A1
:103590001CBFD4F8100200280ED015F00F0FABD1CD
:1035A000401CC4F81002D4F80C12D4F8000269B917
:1035B000B0F8080285429FD30425D4F81802C07AD7
:1035C00045B3042D2FD140072DD42BE090F80222D3
:1035D000521E12EA151F8FD1FFF7A2F8022887D3D7
:1035E00010F1010F3FF46BAFD4F80012D1F81422A0
:1035F0009042E1D2C4F80C02801ED1F81422921E2F
:1036000090422FBF002091F80222D1F8281202FB2D
:1036100000106FE7400706D4D4F81412C87AC00629
:103620003FF502AF0525284601B0F0BD02684FF016
:10363000FF31CAB3134600E05B1C93F800C0BCF135
:10364000210F1AD3BCF13A0F17D013F801CFBCF1F8
:10365000210F12D3BCF13A0F0FD013F801CFBCF1F8
:10366000210F0AD3BCF13A0F07D013F801CFBCF1F8
:10367000210F02D3BCF13A0FDED193F800C0BCF1A8
:103680003A0F10D112F801CBACF1300CBCF10A0F9B
:103690000AD29A4208BFBCF1000F05D15A1C002182
:1036A00002600846704700210846704710B504467E
:1036B000002084F804024FF0FF30C4F82C022046AA
:1036C000FEF7A5FF08B1032010BD94F8FF0194F8A0
:1036D000FE1141EA00204AF65521884201D002201D
:1036E00010BD94F8372094F83810DFF8B4061202B1
:1036F00042EA014194F83620114381420BD094F8FC
:10370000532094F85410120242EA014194F85220D6
:103710001143814201D1002010BD012010BD0000E5
:103720002DE9F043804685B00020C8F8000014461B
:103730000846FFF77BFF070048BF0B2000F1C98157
:10374000DFF8605605EB8700D0F894601EB90C20B6
:1037500005B0BDE8F083C8F8006096F8000258B1E3
:1037600096F8010200F024FFC10705D4002C00F0F8
:10377000AF81400711D4ABE1002086F8000286F843
:10378000017296F8010200F01CFFC10748BF032038
:1037900000F19F812CB1400703D50A2005B0BDE898
:1037A000F08300213046FFF781FF00270446012CFB
:1037B0005AD106F5DF7100A80A795AB18B7ACA7A14
:1037C0001B0443EA02624B7A097A42EA032211435C
:1037D000009100E0009706F5E7710A795AB18B7AFB
:1037E000CA7A1B0443EA02624B7A097A42EA03224C
:1037F0001143416000E0476006F5EF710A795AB164
:103800008B7ACA7A1B0443EA02624B7A097A42EA4B
:1038100003221143816000E0876006F5F7710A79A1
:103820005AB18B7ACA7A1B0443EA02624B7A097A4C
:1038300042EA03221143C16000E0C7604FEA070873
:103840000DF10009D9F8007027B139463046FFF76D
:103850002DFF00E00220040006D008F10108B8F1B5
:10386000040F09F10409EDD3032C08BF012000F077
:103870003081002C01BF307BF17A41EA0020B0F5A5
:10388000007F40F09780F07DB17D51EA00200DD19E
:1038900096F8261096F82700090441EA006096F889
:1038A000251040EA012096F824100843317CC6F820
:1038B0001802012918BF022986F803127AD1484359
:1038C000717B86F80212002974D04A1E114271D110
:1038D000B27C737C43EA02220F231A42A6F8082224
:1038E00068D1337DF47C54EA03240DD196F822404C
:1038F00096F82330240444EA036396F8214043EA0F
:10390000042396F820401C43F37B96F80EC05CEA33
:1039100003234FD000EB030C0CEB121C644549D37E
:10392000A4EB0C04B4FBF1F1002943D0012440F6D0
:10393000F67E714528BF02244FF6F67E714528BFFA
:103940000324891CC6F81412C6F81C72D919C6F8CB
:103950002012032C0CEB0701C6F8281212D14ABB27
:1039600096F82E1096F82F00090441EA006096F8A8
:103970002D1040EA012096F82C100843D6F81412B6
:1039800089000EE0B2B1D6F820124018D6F8141211
:10399000022C0FBF490001EB410201F0010101EBD4
:1039A0005201C6F8240201F2FF11D6F81802B0EB5A
:1039B000512F03D20D2005B0BDE8F0834FF0FF304A
:1039C000C6F81002C6F80C02802086F80502032C07
:1039D00001BF96F8310096F8301041EA0020012826
:1039E00051D1791C3046FEF712FE00284BD186F8E3
:1039F000050296F8FE1196F8FF0141EA00204AF60A
:103A0000552188423FD1B178F078090441EA00603D
:103A1000717840EA012031780843DFF88C1388423E
:103A200031D196F8E61196F8E701090441EA006001
:103A300096F8E51140EA012096F8E4110843DFF812
:103A40006C1388421FD196F8EA1196F8EB0109042D
:103A500041EA006096F8E91140EA012096F8E81181
:103A60000843C6F8100296F8EE1196F8EF01090423
:103A700041EA006096F8ED1140EA012096F8EC1159
:103A80000843C6F80C0286F80042B5F89000401CC6
:103A9000A5F89000A6F8060200202968B14204BFEC
:103AA00000212960E968401CB14204BF0021E9609F
:103AB000A969401CB14204BF0021A961696A401C88
:103AC000B14204BF00216962401C30350C28E4D3A8
:103AD000002005B0BDE8F08300B581B000281CBF10
:103AE000D0F8001200290ED091F800225AB1B1F896
:103AF0000622B0F80402824205D191F8010200F0DA
:103B000057FDC00702D5092001B000BD002001B05B
:103B100000BD33B5080081B059D000E0401C0178E9
:103B2000212913D33A2911D010F8011F21290DD3CF
:103B30003A290BD010F8011F212907D33A2905D0C3
:103B400010F8011F212901D33A29E7D101783A2938
:103B500009D1029911F8013B303B0A2B37D281423F
:103B600008BF002B33D18F48D0F89410F9B100244E
:103B700003461D688D4204BF00251D60DD68641C7E
:103B80008D4204BF0025DD609D69641C8D4204BF29
:103B900000259D615D6A641C8D4204BF00255D6245
:103BA000641C30330C2CE4D3002381F800320199DB
:103BB00019B1019B002183F800120199C0F89410FB
:103BC000019808B1012A05D0002003B030BD0B20B8
:103BD00003B030BD002202A901A8FFF7A1FD03B088
:103BE00030BD00002DE9F2435FEA0008ADF50C7D21
:103BF00008BF092000F0D0800020C8F8000202F0C1
:103C00001F0505F0FE028CA983A8FFF789FD0700B8
:103C100040F0C18000A8899003A88C99FFF7EAFBC7
:103C20000700889E0CD10EB9062709E005F0FE00BA
:103C3000411E8941C943C90F03A8FEF7B7FB0746D8
:103C40001C20054275D0002F6BD0042F1CD1002002
:103C5000DFF8501151F80C2B72B151F80C2B401CAD
:103C600052B151F80C2B401C32B151F80C2B401CB6
:103C700012B1401C0C28EDD30C2808BF122703D02A
:103C800003A8FFF7ABF90746889E45F008056FBB10
:103C9000280731D50020B073F0733146A12030746D
:103CA000462070740020F07230777077B077F0772C
:103CB0008398FFF7EFF804460020B076F076307571
:103CC00070750120839981F804028CB18398D0F833
:103CD0002C922146FEF718FE070007D18398611E3B
:103CE000C0F80C124946FEF792FC0746002F52D14D
:103CF000280748BF45F020058398D0F82C02C8F863
:103D00001C02C8F8206205F0FE00411E8941C9432B
:103D1000C90F03A8FEF7B6FBC8F82802B0B90227FE
:103D200039E0F07A112108420ED16807B0D5082792
:103D300031E0002FDAD1F07AC10648BF04272AD437
:103D4000A907D5D5C007D3D5072724E088F80652A0
:103D5000002088F807023146839D2846FFF79AF82D
:103D6000C8F81002B17FF07F090441EA0060717F5A
:103D700040EA0120317FC8F800520843C8F80C021D
:103D80000020C8F80802C8F81802C8F82402B5F8DC
:103D90000602A8F8040238460DF50D7DBDE8F08353
:103DA00046415400581400205252614172724161E0
:103DB0002DE9F04782461E460020306017468846AF
:103DC0005046FFF789FE002804BF9AF80702002832
:103DD00040F0FE809AF80602C00758BF072040F165
:103DE000F780DAF80C02DAF80812401AB84237D82D
:103DF000074635E0CAF81892DAF80802C205D20D73
:103E0000C2F50070874298BF384641465244E8B137
:103E100010F0030300F0068012F8014B01F8014B8B
:103E20005B1EF9D1830811D012F8014B01F8014B48
:103E30005B1E12F8014B01F8014B12F8014B01F81F
:103E4000014B12F8014B01F8014BEDD1DAF80812E1
:103E50004118CAF8081280443168411831603F1A8D
:103E6000002F00F0B480DAF80812C805C4D1DAF8DF
:103E7000000290F802224B0A551E05EA0304E4B240
:103E8000ACBB11B9DAF810022AE0DAF8241219B33F
:103E9000081DB3FBF2F101E0891A083002680AB983
:103EA00000201DE0914214D3891A50F8082F002AEF
:103EB000F6D091420DD3891A50F8082F002AEFD07E
:103EC000914206D3891A50F8082F002AE8D091426F
:103ED000E2D24068401803E0DAF81412FEF720FC42
:103EE000022815D310F1010F6CD0CAF81402DAF8C9
:103EF0000002DAF8142200F50573921E1968891E73
:103F00008A4205D290F802125B6901FB023222B9A3
:103F100002208AF80702BDE8F0877D0A04EB020957
:103F20002ED02A19914238BF0D1B90F801022B4662
:103F30004A46414600F054FB002843D19AF8060255
:103F400040061BD5DAF81802A0EB0900A84215D2EA
:103F500008EB40205146802211F8013B00F8013B5C
:103F6000521E11F8013B00F8013B11F8013B00F82B
:103F7000013B11F8013B00F8013BEDD1680265E718
:103F8000DAF818224A453FF435AF9AF80612490686
:103F90000CD590F801020123514600F02EFB88B9A0
:103FA0009AF8060200F0BF008AF806020123DAF848
:103FB000000290F801024A46514600F011FB002829
:103FC0003FF418AF01208AF80702BDE8F08700200F
:103FD000BDE8F08730B581B00446FFF77DFD0028CD
:103FE00057D194F806128A0653D5480613D5D4F84B
:103FF0000002D4F8182290F801020123214600F0B3
:10400000FCFA10B1012001B030BD94F8060200F0B6
:10401000BF0084F80602D4F81C12D4F80002FEF7A0
:10402000F6FAB0BBD4F82052E87A40F02000E872EB
:10403000D4F80C022877D4F80C020004000E68773C
:10404000D4F80C02000CA877D4F80C02000EE87724
:104050002846D4F81012FEF72DFF0020A875E87549
:1040600001B0A1202876462068760020A874E87464
:1040700094F80602D4F8001200F0DF0084F806027B
:10408000012081F80402D4F80002BDE83040FEF7B8
:10409000DABA01B030BD10B50446FFF79BFF58B93E
:1040A0002046FFF719FD38B9D4F82802FEF75FFA69
:1040B00010B90021C4F8001210BD00002DE9F04F26
:1040C00081B082460F46FFF707FD5FEA000940F026
:1040D000F7819AF80702002840F0F381DAF824B259
:1040E000BBF1000F00F0868017F1010F30D15BF8B3
:1040F000047BDAF810020224F8B180460025A41CE3
:1041000006460146DAF80002FEF70AFB6D1C02289B
:10411000C0F0938110F1010F00F0BC81711C884246
:10412000EED0A74224BF4BF8045B4BF8048BDAF8BF
:104130000012D1F814128842DFD3DAF824020460A6
:10414000A74232BF4FF011090020CBF80000B7E1C1
:10415000DAF80C02B84298BF0746002FCAF8087276
:1041600000F0AE817C1E21465046FEF741FDDAF894
:104170000072CAF8140207F50572801E13689B1EB0
:10418000984280F05A8197F80212526901FB002090
:10419000002800F05281491E01EA54210C18DAF877
:1041A0000802C0051CBFDAF81822944200F088818A
:1041B0009AF8060240060ED597F8010201235146EF
:1041C00000F01BFA002840F065819AF8060200F022
:1041D000BF008AF806020123DAF8000290F8010213
:1041E0002246514600F0FCF9002840F05381CAF8FD
:1041F000184265E1DAF80C02B84204D29AF80612C5
:10420000890758BF0746DAF808020021002FCAF8CC
:10421000081200F01A81DAF8008298F802124902B6
:10422000009188B10099009B401E7A1EB0FBF1F10D
:10423000B2FBF3F28A4207D3591E8843DAF81452CC
:10424000CAF808023F1AB9E0DAF81052002D40F01F
:10425000B380D8F80C621EB1D8F81402864200D39D
:1042600001263446D8F81402641C844203D3022485
:10427000022EC0F09F8021464046FEF751FA0028EA
:1042800040F08980022C6BD3D8F81402844267D2A4
:1042900098F80002012834D062D3032801D01CD33F
:1042A0005EE0D8F8200200EBD4114046FEF7AFF9EB
:1042B000002856D1A100C90508EBD1516FF0704319
:1042C000CA7843EA0262FF23120E0B704B708B70A8
:1042D000CA70012188F8041243E0D8F8200200EBEC
:1042E00014214046FEF793F900283AD16100C90530
:1042F00008EBD151FF230B704B70012188F8041299
:104300002FE0D8F8200204EB540500EB552140467D
:10431000FEF77DF928BBE8056D1C08EBD05114F0C1
:1043200001061ABF087840F0F000FF200870012055
:1043300088F80402D8F8200200EB55214046FEF729
:1043400066F970B9E90508EBD151002E12BFFF22C2
:104350000A7842F00F020A70012188F8041200E086
:10436000022088B9D8F81002C8F80C4210F1010FE9
:104370000FD0401EC8F81002254698F8050240F0FC
:10438000010088F8050210E001280CBF4FF0FF344F
:104390000124254609E010F1010F18BF012803D0C0
:1043A000B4427FF45FAF05E00546012D45D015F11D
:1043B000010F6FD0CAF81052CAF81452C5B944E0C0
:1043C000FEF7AEF9054615F1010F63D0022D34D387
:1043D000DAF80002D0F8140285422ED2CAF814523C
:1043E000DAF8080200990818CAF8080200983F1A7B
:1043F0000098B8420BD29AF806028007DAF8000259
:104400002946DDD5FEF728FB0500DCD1009FDAF850
:1044100008023818CAF80802F80516D0DAF80002BF
:10442000D0F81422A91E921E914206D290F80222C0
:10443000D0F8280202FB010028B902208AF80702FE
:1044400001B0BDE8F08F00EB572BDAF80802C00589
:104450001CBFDAF81822934524D09AF806024006C9
:104460000ED5DAF8000290F801020123514600F05F
:10447000C4F878B99AF8060200F0BF008AF806027C
:104480000123DAF8000290F801025A46514600F082
:10449000A7F828B101208AF8070201B0BDE8F08F23
:1044A000CAF818B2DAF80802DAF80C12814207D218
:1044B000CAF80C029AF8060240F020008AF80602B8
:1044C000484601B0BDE8F08F32B5040084B008BFA3
:1044D000092040D0002204A900A8FFF721F9050017
:1044E00034D10098C4F8000201A8C4F8180220468C
:1044F0000499FEF77FFF050024D1D4F8141239B1D6
:10450000C87AC00620D50098FEF7C4FCC4F808029B
:1045100000210098B0F80602A4F804022046FEF735
:104520008FFB05000ED1D4F8080210B9C4F81C02A4
:1045300010E000212046FDF7A5FFC4F81C0248B991
:10454000122504E0042D01D1052500E015B100205D
:10455000C4F80002284605B030BD30B583B004462B
:104560000D46FFF7B9FA08BB2DB900212046FEF72A
:1045700067FB03B030BD00A8C4F818020021204634
:10458000FEF7A1FC042803D10020C4F8100200E0CB
:1045900060B929462046FEF717FE00212046FEF7A7
:1045A000A9FB042804BF0020C4F8100203B030BDEA
:1045B00001461F4A881802EB81014968007A496860
:1045C00008471B4A014600208B5C43B901208854F0
:1045D000881802EB81014968007A0968084770472A
:1045E00030B50446124D601905EB84046468007A06
:1045F000A46881B0A04701B030BD30B504460C4D71
:10460000601905EB84046468007AE46881B0A0470F
:1046100001B030BD10B40346054C81B0181904EB4D
:10462000830301B05B68007A1B6910BC1847000067
:1046300074150020002200F015B850F8041B61B179
:1046400050F8042BD30744BFA9F101039A180023A3
:10465000091F42F8043BFAD1EFE7704762F30F22DB
:1046600062F31F42401810F0030308D0C91A1FD389
:10467000DB0748BF00F8012D28BF20F8022D1300EA
:1046800030B414461546103928BF20E93C00FAD84A
:10469000490728BF20E90C0048BF40F8042D8900D5
:1046A00028BF20F8022D48BF00F8012D30BC70470C
:1046B000C91818BF00F8012DCB0728BF00F8012D3D
:1046C00070470268531C03601170704700F5E0707A
:1046D0000268914203D343689A18914202D38068DA
:1046E0000028F5D17047DFF85807016891B94FF4F9
:1046F000803181604FF4805141604FF0FF31C160E3
:1047000001610421DFF83C274161C2F8BC11DFF8E8
:10471000381701600120704701F1080313F0070307
:1047200005D001F10803C3F1080303F0070359188A
:10473000D21A8161C26042F001034B6051182823F4
:104740004B60DFF8FC160969C16170472DE9F84F2D
:10475000064601F1080010F0070008BF884607D0A0
:1047600001F10800C0F1080000F0070000EB0108AB
:1047700002F1080010F0070006D002F10800C0F1B5
:10478000080000F0070082181546A5EB0800A0EB12
:10479000030903EB080B43F00300C8F80400AB4522
:1047A00028BF01F01BFA2879C00758BF01F016FA9C
:1047B000B9F1100F38BF01F011FAB069854209D183
:1047C000F0684844F060C6F818B040F00100CBF83B
:1047D00004006DE1706985420BD1B0684844B06057
:1047E000C6F814B040F00101CBF8041040F80B00FB
:1047F0005EE1686800F00301012940F0AD80C00867
:10480000C0000190C00820283AD2D5F808A0EF686F
:104810000090BD4208BF01F0E1F9554508BF01F025
:10482000DDF968680099C008C000B0EBC10F18BF7F
:1048300001F0D4F9009806EBC00000F128018A4588
:1048400007D031698A45C0F08280DAF80C10A9429D
:104850007DD1574506D1009A3068012191408843A7
:10486000306076E02830874205D0306987426ED3C9
:10487000B868A8426BD1CAF80C70C7F808A068E005
:10488000EF68D5F818A0AF420CD0A868316988420B
:1048900023D3C168A94204BFB968A9421DD1C7602A
:1048A000B8601CE005F11400076837B905F1100085
:1048B0000768A7B101E00846076807F114010A6814
:1048C000002A02BF07F110010A68002AF3D13169FA
:1048D000884202D30021016001E001F07FF9BAF1C2
:1048E000000F36D0E86906EB800000F5987001688B
:1048F0008D4208D10760A7B9EA697068012191402B
:104900008843706025E03069824508D3DAF81000EA
:10491000A84214BFCAF81470CAF8107001E001F080
:104920005DF9B7B13069874211D3C7F818A029697A
:1049300029B1814226BF39618F6101F04FF9686961
:1049400038B13169884202D37861876101E001F0B2
:1049500045F901984519814468684008400068603D
:104960004FEAD90549F00100CBF8040049F80B9053
:10497000202D23D206EBC50000F12807BA46B9F175
:10498000100F38BF01F02AF9306820FA05F1C90785
:1049900004D40121A9400843306006E0B8683169B9
:1049A00088422CBF824601F019F9C7F808B0CAF84E
:1049B0000CB0CBF808A0CBF80C7079E05FEA1921B5
:1049C00008BF002023D0B1F5803F28BF1F201ED292
:1049D000A1F58070000C00F008008140A1F5805224
:1049E000120C02F004029140A1F580431B0CC0F1AF
:1049F0000E0003F00203801AC01A994000EBD13078
:104A0000C11D29FA01F202F0010101EB4000CBF8CF
:104A10001C000022CBF81420CBF8102006EB8001FC
:104A2000726822FA00F3DB0701F5987107D40123BD
:104A300003FA00F010437060C1F800B01DE01F28B9
:104A400009680EBF00204008C0F1190009FA00F003
:104A500000E011464A68D208D2004A4514D0C20F7D
:104A600001EB820202F1100340001A68002AF0D123
:104A7000306983421AD3C3F800B0CBF81810CBF8D2
:104A80000CB0CBF808B013E032698868914228BFB7
:104A900090420BD3C0F80CB0C1F808B0CBF80800B6
:104AA000CBF80C100020CBF8180001E001F096F8CC
:104AB00008F10800BDE8E68F2DE9FA4D0546DFF85C
:104AC0008003006884B008B9FFF70DFEDFF87003BB
:104AD0000499806841182F31401E21EA0000049992
:104AE000814280F0A88105F5D876B16839B1326885
:104AF0008018824280F09F818142C0F09C8101F049
:104B000071F800281EBF0446D0F8008014F1010F90
:104B100000F091813068716840448142306038BF54
:104B200001467160A86980BB286908B1844200D23F
:104B30002C610020F0613461C6F8148005F1280171
:104B4000BF48006868624FF0FF302862002001F122
:104B50000802C9601160801C10312028D260926068
:104B6000F5D3B848854203D1A8F12802214629E0AF
:104B700055F8040CC00805EBC000A0F1080108EBD3
:104B80000400401AA0F128021CE005F5E071084677
:104B900000E08068D0B1026843689A189442F8D166
:104BA000027B120712D4AA6903689A420ED347689F
:104BB0003B449A420AD208EB07014160E868A969C0
:104BC00008EB00022846FFF7A7FD1EE12869844292
:104BD000084638BF2C6108EB040100E0806880B112
:104BE00002688A42FAD1017B09070AD4046041684D
:104BF000414441602146049B284606B0BDE8F04D83
:104C0000A4E5AF6939462846FFF760FD01684068B2
:104C1000401802902F3800F1080111F0070105D06B
:104C200000F10801C1F1080101F00701081807F1BE
:104C30001001884234BF009700900098083001901E
:104C400004F10801009800F1180A11F007014FF073
:104C5000000BA8F1280005D004F10801C1F10801FA
:104C600001F007010A19401AAA61E86040F0010149
:104C7000516080182821416071480069E8610198FD
:104C800010F0070018BF00F0A9FF00991B20486032
:104C900005F5E071B1E80C500198A0E80C503461C2
:104CA000C6F81480C6F81CB00198B061029800E004
:104CB0008A460722CAF804200AF104010A1D82422A
:104CC0000BF1010BF4D3BBF1020FB8BF00F086FF6C
:104CD0000098B84200F09980C01BC119C4084A6806
:104CE000520852004A6040F001017960C051202C06
:104CF00020D205EBC40101F12806B046102838BFC8
:104D000000F06CFF286820FA04F1C90704D40121DF
:104D1000A1400843286006E0B068296988422CBF9A
:104D2000804600F05BFFB760C8F80C70C7F80880D9
:104D3000FE606AE0010A08BF002223D0B1F5803F7F
:104D400028BF1F221ED2A1F58072120C02F00802A9
:104D50009140A1F580531B0C03F004039940A1F589
:104D60008044240CC2F10E0204F00204D21A121B79
:104D7000A14002EBD131CA1D20FA02F303F0010277
:104D800002EB4102FA6100237B613B6105EB82018A
:104D90006B6823FA02F4E40701F5987105D4012049
:104DA0009040184368600F601CE01F2A09680EBF1E
:104DB00000225208C2F1190200FA02F200E019467C
:104DC0004B68DB08DB00834210D0D30F01EB830379
:104DD00003F1100452002368002BF0D128698442AB
:104DE00011D32760B961FF60BF600EE02A6988684F
:104DF000914228BF904206D3C7608F60B860F960C7
:104E00000020B86101E000F0E9FEE8680499814201
:104E100011D2401AE860A969049A5218AA6140F0B8
:104E200001005060049840F00300486006B001F1B2
:104E30000800BDE8F08D002006B0BDE8F08D000050
:104E40005C150020801200206859883C2DE9F04D47
:104E50000446002688465FEA1820C8F1000B08BF08
:104E6000002123D0B0F5803F28BF1F211ED2A0F51E
:104E70008071090C01F008018840A0F58052120CE5
:104E800002F004029040A0F580431B0CC1F10E011A
:104E900003F00203891AC91A984001EBD030C11DF2
:104EA00028FA01F202F0010101EB400104EB81005C
:104EB000D0F8300130B31F290EBF00224A08C2F1DA
:104EC000190208FA02F2002300E052004768FF08C6
:104ED000FF00A7EB08075F4503D25FEA070B064612
:104EE0000CD047694FEAD27E00EB8E00002F00699C
:104EF0001CBF87423B460028E7D1184600283CD11A
:104F0000002E3CD1012088404000414208436168A6
:104F1000084000F0678141420840411E080B00F044
:104F2000100021FA00F2510901F0080122FA01F300
:104F30009A0802F00407FB405A0802F0020508181C
:104F400023FA05F23844C2F340032818181822FA4D
:104F500003F1081804EB8000D0F830010DE008469A
:104F60004168C908C900A1EB080159453CBF8B46FF
:104F7000064601690029F2D140690028F0D1002ECF
:104F800000F03081A068A0EB0800834580F02A8102
:104F900020698642C0F024817068C008C00008EB18
:104FA0000B0108EB0605884218BF00F017FEAE4261
:104FB00080F01681F768D6F818A0B7420CD0B06818
:104FC0002169884223D3C168B14204BFB968B142A4
:104FD0001DD1C760B8601CE006F11400076837B93E
:104FE00006F110000768A7B101E00846076807F15D
:104FF00014010A68002A02BF07F110010A68002A9A
:10500000F3D12169884202D30021016001E000F060
:10501000E5FDBAF1000F38D0F06904EB800000F52F
:10502000987001688E4209D10760380014D1F26986
:105030006068012191408843606026E020698245D4
:1050400008D3DAF81000B04214BFCAF81470CAF8D6
:10505000107001E000F0C2FDBFB12069874212D399
:10506000C7F818A0306930B12169884226BF38617D
:10507000876100F0B3FD706938B12169884202D3BD
:105080007861876101E000F0A9FDBBF1100F0CD23F
:1050900008EB0B0040F00300706008EB0B00801978
:1050A000416841F00101416096E048F00300706002
:1050B0004BF0010068604FEADB004BF805B0202898
:1050C0001DD204EBC00101F12807216821FA00F28A
:1050D000D207BB4605D4012202FA00F00843206043
:1050E00006E0B868216988422CBF834600F076FD4F
:1050F000BD60CBF80C50C5F808B0EF606CE05FEA1B
:105100001B2108BF002023D0B1F5803F28BF1F20FE
:105110001ED2A1F58070000C00F008008140A1F5BE
:105120008052120C02F004029140A1F580431B0C46
:10513000C0F10E0003F00203801AC01A994000EB80
:10514000D130C11D2BFA01F202F0010101EB400048
:10515000E86100226A612A6104EB8001626822FA38
:1051600000F3DB0701F5987106D4012303FA00F080
:10517000104360600D601CE01F2809680EBF00200E
:105180004008C0F119000BFA00F000E011464A682F
:10519000D208D2005A4510D0C20F01EB820202F1B0
:1051A000100340001A68002AF0D12069834211D30D
:1051B0001D60A961ED60AD600EE0226988689142D2
:1051C00028BF904206D3C5608D60A860E9600020CA
:1051D000A86101E000F002FD06F10800BDE8F08DD5
:1051E00000F0FCFC0020BDE8F08D2DE9F84F0446EE
:1051F0008846606841420840411E080B00F01000DC
:1052000021FA00F2510901F0080122FA01F39A088B
:1052100002F0040223FA02F56B0803F002030818F7
:1052200025FA03F61018C6F340051818284426FA84
:1052300005F1081804EB8000D0F830014168C90876
:10524000C9000646A1EB080A09E008464168C908FA
:10525000C900A1EB080151453CBF8A4606460169D9
:105260000029F2D140690028F0D120698642C0F0BF
:10527000C4807068C00808EB0A09C00008EB060B80
:10528000484518BF00F0AAFC5E4580F0B680F7687C
:10529000B569B7420CD0B0682169884223D3C16890
:1052A000B14204BFB968B1421DD1C760B8601CE00B
:1052B00006F11400076837B906F110000768A7B1B6
:1052C00001E00846076807F114010A68002A02BFD6
:1052D00007F110010A68002AF3D12169884202D33C
:1052E0000021016001E000F079FC002D34D0F0696C
:1052F00004EB800000F5987001688E4209D10760C8
:10530000380011D1F26960680121914088436060E2
:1053100022E02069854205D32869B04214BF6F613D
:105320002F6101E000F05AFCB7B12069874211D328
:10533000BD61306930B12169884226BF386187611B
:1053400000F04CFC706938B12169884202D3786161
:10535000876101E000F042FCBAF1100F09D249F078
:105360000300706009EB0600416841F001014160F3
:105370003FE048F0030070604AF00100CBF8040001
:105380004AF80BA0D4F808804FEAD805202D28BF92
:1053900000F024FCB8F1000F27D0D4F81490009549
:1053A00004EBC50000F128052F46B8F1100F38BFF7
:1053B00000F014FC2068009920FA01F2D10705D40E
:1053C000009A012191400843206006E0A868216905
:1053D00088422CBF074600F001FCC5F80890C7F8CA
:1053E0000C90C9F80870C9F80C50C4F808A0C4F8AB
:1053F00014B006F10800BDE8F28F00F0EFFB0020CA
:10540000BDE8F28F2DE9F04F83B00546C046C04697
:10541000F52DDFF8C04780F007810B2D31BF102735
:1054200005F10B00C708FF002168FE0821FA06F00D
:1054300010F0030F42D0C04300F00100861904EBC6
:10544000C60000F12808F700D8F808506868C008BE
:10545000C000B84218BF00F0C1FBD5F80890454520
:1054600008BF00F0BBFB4D4508BF00F0B7FB686804
:10547000C008C000B84218BF00F0B0FBC84505D155
:1054800020680121B140884320600DE020698145FA
:1054900008D3D9F80C00A84204D1C8F80890C9F87C
:1054A0000C8001E000F09AFB47F003006860781977
:1054B0000835416841F001014160FDE0A168B94251
:1054C00080F0C480002800F0A680012505FA06F1CE
:1054D00049004A42B0401143084041420840411E41
:1054E000080B00F0100021FA00F2510901F0080346
:1054F00022FA03F18A0802F0040221FA02F6710886
:1055000001F00208181826FA08F11018C1F3400635
:105510004044301821FA06F202EB000804EBC80000
:1055200000F128094FEAC80AD9F808607068C00875
:10553000C000504518BF00F051FBD6F808B04E45EA
:1055400008BF00F04BFB5E4508BF00F047FB7068EA
:10555000C008C000504518BF00F040FBD94505D138
:10556000206805FA08F1884320600DE02069834532
:1055700008D3DBF80C00B04204D1C9F808B0CBF86E
:105580000C9001E000F02AFB47F003007060AAEBEA
:105590000708B819019048F0010001994860019886
:1055A00048F80080A7684FEAD70ABAF1200F28BF51
:1055B00000F014FB47B3CDF800A004EBCA00D4F808
:1055C000149000F1280AD346102F38BF00F006FBD4
:1055D0002068009920FA01F2D10705D4009905FA54
:1055E00001F10843206007E0DAF8080021698842E9
:1055F0002CBF834600F0F2FACAF80890CBF80C9062
:10560000C9F808B0C9F80CA0C4F8088006F108056C
:105610000198606150E06068C0B339462046FFF7EA
:10562000E4FD050012D047E015F1400F28BF4FF010
:10563000FF370BD205F10B00C7086068FF0028B1E7
:1056400039462046FFF702FC050035D1A068B84274
:105650001CD3C11B626910290AD3B8186061A1600C
:1056600041F001034360095047F0030050600AE035
:105670000021A160616140F0030151608018416820
:1056800041F00101416002F1080515E0E068874240
:105690000DD2C01BA169E0607A18A26140F0010040
:1056A000506001F1080547F00300486004E0394606
:1056B0002046FFF701FA0546C046C046284603B01B
:1056C000BDE8F08F00B970472DE9F047A0F108045C
:1056D000C046C046DFF8FC5428698442C0F074829A
:1056E000616801F00302012A00F06E82CA084FEAE5
:1056F000C208CA0708EB040936D4226811F0030F68
:1057000000F06482A41A84429044C0F05D8269690A
:105710008C4200F0D880D608202E70D2D4F80CA08D
:10572000A768544508BF00F059FABC4208BF00F012
:1057300055FA6068C008C000B0EBC60F18BF00F093
:105740004DFA05EBC60000F128018F4205D029690A
:105750008F4251D3F968A1424ED1BA453DD1286854
:105760000121B140884328604C4580F02D82D9F852
:105770000400C10740F12882810700F17A81A969FC
:10578000894540F0B580E868AC614044E86040F08D
:105790000101616069698C4202D100216961A960DF
:1057A000E969814280F01282DFF82C04006808B9B0
:1057B000FEF799FFA969002900F00882E868292806
:1057C00024BF2846FEF782FFE869E968884280F036
:1057D000FD814FF0FF30E861F8E12830824506D0C6
:1057E0002869824508D3DAF80800A04204D1C7F836
:1057F0000CA0CAF80870B7E700F0F0F9B4E7E76862
:10580000A669A7420BD0A168814222D3C868A042F2
:1058100004BFB868A0421CD1CF60B9601BE004F19E
:1058200014010F6837B904F110010F689FB101E04E
:1058300011460F6807F114021368002B02BF07F12D
:1058400010021368002BF3D1814202D300200860BC
:1058500001E000F0C3F9002E86D0E06905EB80007E
:1058600000F5987001688C4209D10760380011D1A9
:10587000E2696868012191408843686074E728699B
:10588000864205D33069A04214BF7761376101E0D9
:1058900000F0A4F9002F3FF467AF28698742ABD32B
:1058A000BE61216929B1814226BF39618F6100F053
:1058B00095F9606900283FF457AF296988429BD366
:1058C0007861876150E799F8040000F0030003282D
:1058D0007FF44AAFC5F80880D9F8040040084000BA
:1058E000C9F8040048F00100606048F804806DE1E8
:1058F0006969894508D1A8686C614044A86040F096
:1059000001016160005161E1C008C0004FEAD00AA6
:10591000BAF1200F804436D2D9F80C70D9F808605B
:10592000B94508BF00F05AF9B14508BF00F056F973
:10593000D9F80400C008C000B0EBCA0F18BF00F0CF
:105940004DF905EBCA0000F128018E4206D0296905
:105950008E42C0F08180F16849457DD1B74206D1C1
:105960002868012101FA0AF18843286076E028308E
:10597000874205D0286987426ED3B86848456BD105
:10598000F760BE606AE0D9F80C70D9F818604F452E
:105990000DD0D9F808002969884223D3C168494548
:1059A00004BFB96849451DD1C760B8601CE009F162
:1059B0001400076837B909F110000768A7B101E0C2
:1059C0000846076807F114010A68002A02BF07F1B8
:1059D00010010A68002AF3D12969884202D3002104
:1059E000016001E000F0FAF8002E37D0D9F81C0071
:1059F00005EB800000F59870016889450AD10760C1
:105A0000380012D1D9F81C206868012191408843E0
:105A1000686023E02869864205D33069484514BF91
:105A20007761376101E000F0D9F8BFB1286987429A
:105A300012D3BE61D9F8101029B1814226BF396155
:105A40008F6100F0CBF8D9F8140038B12969884289
:105A500002D37861876101E000F0C0F848F00100EE
:105A6000606048F80480686984420BD1C5F80880FA
:105A7000ACE040084000C9F8040048F00100606054
:105A800048F804804FEAD807202F22D205EBC70040
:105A900000F128094E46B8F1100F38BF00F09EF80B
:105AA000286820FA07F1C90704D40121B940084346
:105AB000286007E0D9F80800296988422CBF06460B
:105AC00000F08CF8C9F80840F460A660C4F80C90A7
:105AD0007CE05FEA182008BF002123D0B0F5803FAA
